{
  "contractName": "Market",
  "abi": [
    {
      "inputs": [
        {
          "internalType": "contract IERC1155",
          "name": "_tokenContract",
          "type": "address"
        }
      ],
      "stateMutability": "nonpayable",
      "type": "constructor"
    },
    {
      "anonymous": false,
      "inputs": [
        {
          "indexed": true,
          "internalType": "address",
          "name": "previousOwner",
          "type": "address"
        },
        {
          "indexed": true,
          "internalType": "address",
          "name": "newOwner",
          "type": "address"
        }
      ],
      "name": "OwnershipTransferred",
      "type": "event"
    },
    {
      "inputs": [
        {
          "internalType": "uint256",
          "name": "",
          "type": "uint256"
        }
      ],
      "name": "offers",
      "outputs": [
        {
          "internalType": "uint256",
          "name": "price",
          "type": "uint256"
        },
        {
          "internalType": "uint256",
          "name": "amount",
          "type": "uint256"
        },
        {
          "internalType": "address payable",
          "name": "owner",
          "type": "address"
        }
      ],
      "stateMutability": "view",
      "type": "function"
    },
    {
      "inputs": [
        {
          "internalType": "address",
          "name": "",
          "type": "address"
        },
        {
          "internalType": "address",
          "name": "",
          "type": "address"
        },
        {
          "internalType": "uint256[]",
          "name": "",
          "type": "uint256[]"
        },
        {
          "internalType": "uint256[]",
          "name": "",
          "type": "uint256[]"
        },
        {
          "internalType": "bytes",
          "name": "",
          "type": "bytes"
        }
      ],
      "name": "onERC1155BatchReceived",
      "outputs": [
        {
          "internalType": "bytes4",
          "name": "",
          "type": "bytes4"
        }
      ],
      "stateMutability": "nonpayable",
      "type": "function"
    },
    {
      "inputs": [
        {
          "internalType": "address",
          "name": "",
          "type": "address"
        },
        {
          "internalType": "address",
          "name": "",
          "type": "address"
        },
        {
          "internalType": "uint256",
          "name": "",
          "type": "uint256"
        },
        {
          "internalType": "uint256",
          "name": "",
          "type": "uint256"
        },
        {
          "internalType": "bytes",
          "name": "",
          "type": "bytes"
        }
      ],
      "name": "onERC1155Received",
      "outputs": [
        {
          "internalType": "bytes4",
          "name": "",
          "type": "bytes4"
        }
      ],
      "stateMutability": "nonpayable",
      "type": "function"
    },
    {
      "inputs": [],
      "name": "owner",
      "outputs": [
        {
          "internalType": "address",
          "name": "",
          "type": "address"
        }
      ],
      "stateMutability": "view",
      "type": "function"
    },
    {
      "inputs": [],
      "name": "renounceOwnership",
      "outputs": [],
      "stateMutability": "nonpayable",
      "type": "function"
    },
    {
      "inputs": [
        {
          "internalType": "bytes4",
          "name": "interfaceId",
          "type": "bytes4"
        }
      ],
      "name": "supportsInterface",
      "outputs": [
        {
          "internalType": "bool",
          "name": "",
          "type": "bool"
        }
      ],
      "stateMutability": "view",
      "type": "function"
    },
    {
      "inputs": [],
      "name": "tokenContract",
      "outputs": [
        {
          "internalType": "contract IERC1155",
          "name": "",
          "type": "address"
        }
      ],
      "stateMutability": "view",
      "type": "function"
    },
    {
      "inputs": [
        {
          "internalType": "address",
          "name": "newOwner",
          "type": "address"
        }
      ],
      "name": "transferOwnership",
      "outputs": [],
      "stateMutability": "nonpayable",
      "type": "function"
    },
    {
      "inputs": [
        {
          "internalType": "uint256",
          "name": "tokenId",
          "type": "uint256"
        },
        {
          "internalType": "uint256",
          "name": "amount",
          "type": "uint256"
        },
        {
          "internalType": "uint256",
          "name": "price",
          "type": "uint256"
        }
      ],
      "name": "list",
      "outputs": [],
      "stateMutability": "nonpayable",
      "type": "function"
    },
    {
      "inputs": [
        {
          "internalType": "uint256",
          "name": "tokenId",
          "type": "uint256"
        },
        {
          "internalType": "uint256",
          "name": "amount",
          "type": "uint256"
        }
      ],
      "name": "unlist",
      "outputs": [],
      "stateMutability": "nonpayable",
      "type": "function"
    },
    {
      "inputs": [
        {
          "internalType": "uint256",
          "name": "tokenId",
          "type": "uint256"
        },
        {
          "internalType": "uint256",
          "name": "amount",
          "type": "uint256"
        }
      ],
      "name": "buy",
      "outputs": [],
      "stateMutability": "payable",
      "type": "function"
    }
  ],
  "bytecode": "0x60a06040523480156200001157600080fd5b5060405162001f9f38038062001f9f8339818101604052810190620000379190620002bd565b620000576200004b6200017360201b60201c565b6200017b60201b60201c565b8073ffffffffffffffffffffffffffffffffffffffff166301ffc9a77fd9b67a26000000000000000000000000000000000000000000000000000000006040518263ffffffff1660e01b8152600401620000b291906200032c565b602060405180830381865afa158015620000d0573d6000803e3d6000fd5b505050506040513d601f19601f82011682018060405250810190620000f6919062000386565b62000138576040517f08c379a00000000000000000000000000000000000000000000000000000000081526004016200012f9062000419565b60405180910390fd5b8073ffffffffffffffffffffffffffffffffffffffff1660808173ffffffffffffffffffffffffffffffffffffffff1681525050506200043b565b600033905090565b60008060009054906101000a900473ffffffffffffffffffffffffffffffffffffffff169050816000806101000a81548173ffffffffffffffffffffffffffffffffffffffff021916908373ffffffffffffffffffffffffffffffffffffffff1602179055508173ffffffffffffffffffffffffffffffffffffffff168173ffffffffffffffffffffffffffffffffffffffff167f8be0079c531659141344cd1fd0a4f28419497f9722a3daafe3b4186f6b6457e060405160405180910390a35050565b600080fd5b600073ffffffffffffffffffffffffffffffffffffffff82169050919050565b6000620002718262000244565b9050919050565b6000620002858262000264565b9050919050565b620002978162000278565b8114620002a357600080fd5b50565b600081519050620002b7816200028c565b92915050565b600060208284031215620002d657620002d56200023f565b5b6000620002e684828501620002a6565b91505092915050565b60007fffffffff0000000000000000000000000000000000000000000000000000000082169050919050565b6200032681620002ef565b82525050565b60006020820190506200034360008301846200031b565b92915050565b60008115159050919050565b620003608162000349565b81146200036c57600080fd5b50565b600081519050620003808162000355565b92915050565b6000602082840312156200039f576200039e6200023f565b5b6000620003af848285016200036f565b91505092915050565b600082825260208201905092915050565b7f546f6b656e206973206e6f7420737570706f7274656400000000000000000000600082015250565b600062000401601683620003b8565b91506200040e82620003c9565b602082019050919050565b600060208201905081810360008301526200043481620003f2565b9050919050565b608051611b2c6200047360003960008181610318015281816103f4015281816106a00152818161088401526109f20152611b2c6000f3fe60806040526004361061009c5760003560e01c80638a72ea6a116100645780638a72ea6a146101725780638da5cb5b146101b1578063bc197c81146101dc578063d6febde814610219578063f23a6e6114610235578063f2fde38b146102725761009c565b806301ffc9a7146100a157806319aeb490146100de5780634fd69f3c1461010757806355a373d614610130578063715018a61461015b575b600080fd5b3480156100ad57600080fd5b506100c860048036038101906100c39190610e95565b61029b565b6040516100d59190610edd565b60405180910390f35b3480156100ea57600080fd5b5061010560048036038101906101009190610f2e565b610315565b005b34801561011357600080fd5b5061012e60048036038101906101299190610f81565b61057a565b005b34801561013c57600080fd5b5061014561069e565b6040516101529190611040565b60405180910390f35b34801561016757600080fd5b506101706106c2565b005b34801561017e57600080fd5b506101996004803603810190610194919061105b565b61074a565b6040516101a8939291906110b8565b60405180910390f35b3480156101bd57600080fd5b506101c6610794565b6040516101d39190611110565b60405180910390f35b3480156101e857600080fd5b5061020360048036038101906101fe9190611365565b6107bd565b6040516102109190611443565b60405180910390f35b610233600480360381019061022e9190610f81565b6107d2565b005b34801561024157600080fd5b5061025c6004803603810190610257919061145e565b610be6565b6040516102699190611443565b60405180910390f35b34801561027e57600080fd5b50610299600480360381019061029491906114f5565b610bfb565b005b60007f4e2312e0000000000000000000000000000000000000000000000000000000007bffffffffffffffffffffffffffffffffffffffffffffffffffffffff1916827bffffffffffffffffffffffffffffffffffffffffffffffffffffffff1916148061030e575061030d82610cf3565b5b9050919050565b817f000000000000000000000000000000000000000000000000000000000000000073ffffffffffffffffffffffffffffffffffffffff1662fdd58e33866040518363ffffffff1660e01b8152600401610370929190611522565b602060405180830381865afa15801561038d573d6000803e3d6000fd5b505050506040513d601f19601f820116820180604052508101906103b19190611560565b10156103f2576040517f08c379a00000000000000000000000000000000000000000000000000000000081526004016103e9906115ea565b60405180910390fd5b7f000000000000000000000000000000000000000000000000000000000000000073ffffffffffffffffffffffffffffffffffffffff1663e985e9c533306040518363ffffffff1660e01b815260040161044d92919061160a565b602060405180830381865afa15801561046a573d6000803e3d6000fd5b505050506040513d601f19601f8201168201806040525081019061048e919061165f565b6104cd576040517f08c379a00000000000000000000000000000000000000000000000000000000081526004016104c4906116fe565b60405180910390fd5b600060405180606001604052808381526020018481526020013373ffffffffffffffffffffffffffffffffffffffff1681525090508060016000868152602001908152602001600020600082015181600001556020820151816001015560408201518160020160006101000a81548173ffffffffffffffffffffffffffffffffffffffff021916908373ffffffffffffffffffffffffffffffffffffffff16021790555090505050505050565b60006001600084815260200190815260200160002090503373ffffffffffffffffffffffffffffffffffffffff168160020160009054906101000a900473ffffffffffffffffffffffffffffffffffffffff1673ffffffffffffffffffffffffffffffffffffffff1614610623576040517f08c379a000000000000000000000000000000000000000000000000000000000815260040161061a9061176a565b60405180910390fd5b8181600101600082825461063791906117b9565b92505081905550600081600101541415610699576001600084815260200190815260200160002060008082016000905560018201600090556002820160006101000a81549073ffffffffffffffffffffffffffffffffffffffff021916905550505b505050565b7f000000000000000000000000000000000000000000000000000000000000000081565b6106ca610d5d565b73ffffffffffffffffffffffffffffffffffffffff166106e8610794565b73ffffffffffffffffffffffffffffffffffffffff161461073e576040517f08c379a000000000000000000000000000000000000000000000000000000000815260040161073590611839565b60405180910390fd5b6107486000610d65565b565b60016020528060005260406000206000915090508060000154908060010154908060020160009054906101000a900473ffffffffffffffffffffffffffffffffffffffff16905083565b60008060009054906101000a900473ffffffffffffffffffffffffffffffffffffffff16905090565b600063bc197c8160e01b905095945050505050565b60006001600084815260200190815260200160002090508181600101541015610830576040517f08c379a0000000000000000000000000000000000000000000000000000000008152600401610827906115ea565b60405180910390fd5b8181600001546108409190611859565b341015610882576040517f08c379a0000000000000000000000000000000000000000000000000000000008152600401610879906118ff565b60405180910390fd5b7f000000000000000000000000000000000000000000000000000000000000000073ffffffffffffffffffffffffffffffffffffffff1663e985e9c58260020160009054906101000a900473ffffffffffffffffffffffffffffffffffffffff16306040518363ffffffff1660e01b8152600401610901929190611940565b602060405180830381865afa15801561091e573d6000803e3d6000fd5b505050506040513d601f19601f82011682018060405250810190610942919061165f565b6109d5576001600084815260200190815260200160002060008082016000905560018201600090556002820160006101000a81549073ffffffffffffffffffffffffffffffffffffffff0219169055505060006109d4576040517f08c379a00000000000000000000000000000000000000000000000000000000081526004016109cb906119b5565b60405180910390fd5b5b818160010160008282546109e991906117b9565b925050819055507f000000000000000000000000000000000000000000000000000000000000000073ffffffffffffffffffffffffffffffffffffffff1663f242432a8260020160009054906101000a900473ffffffffffffffffffffffffffffffffffffffff163386866040518563ffffffff1660e01b8152600401610a739493929190611a0c565b600060405180830381600087803b158015610a8d57600080fd5b505af1158015610aa1573d6000803e3d6000fd5b505050506000828260000154610ab79190611859565b34610ac291906117b9565b90508160020160009054906101000a900473ffffffffffffffffffffffffffffffffffffffff1673ffffffffffffffffffffffffffffffffffffffff166108fc848460000154610b129190611859565b9081150290604051600060405180830381858888f19350505050158015610b3d573d6000803e3d6000fd5b503373ffffffffffffffffffffffffffffffffffffffff166108fc829081150290604051600060405180830381858888f19350505050158015610b84573d6000803e3d6000fd5b50600082600101541415610be0576001600085815260200190815260200160002060008082016000905560018201600090556002820160006101000a81549073ffffffffffffffffffffffffffffffffffffffff021916905550505b50505050565b600063f23a6e6160e01b905095945050505050565b610c03610d5d565b73ffffffffffffffffffffffffffffffffffffffff16610c21610794565b73ffffffffffffffffffffffffffffffffffffffff1614610c77576040517f08c379a0000000000000000000000000000000000000000000000000000000008152600401610c6e90611839565b60405180910390fd5b600073ffffffffffffffffffffffffffffffffffffffff168173ffffffffffffffffffffffffffffffffffffffff161415610ce7576040517f08c379a0000000000000000000000000000000000000000000000000000000008152600401610cde90611ad6565b60405180910390fd5b610cf081610d65565b50565b60007f01ffc9a7000000000000000000000000000000000000000000000000000000007bffffffffffffffffffffffffffffffffffffffffffffffffffffffff1916827bffffffffffffffffffffffffffffffffffffffffffffffffffffffff1916149050919050565b600033905090565b60008060009054906101000a900473ffffffffffffffffffffffffffffffffffffffff169050816000806101000a81548173ffffffffffffffffffffffffffffffffffffffff021916908373ffffffffffffffffffffffffffffffffffffffff1602179055508173ffffffffffffffffffffffffffffffffffffffff168173ffffffffffffffffffffffffffffffffffffffff167f8be0079c531659141344cd1fd0a4f28419497f9722a3daafe3b4186f6b6457e060405160405180910390a35050565b6000604051905090565b600080fd5b600080fd5b60007fffffffff0000000000000000000000000000000000000000000000000000000082169050919050565b610e7281610e3d565b8114610e7d57600080fd5b50565b600081359050610e8f81610e69565b92915050565b600060208284031215610eab57610eaa610e33565b5b6000610eb984828501610e80565b91505092915050565b60008115159050919050565b610ed781610ec2565b82525050565b6000602082019050610ef26000830184610ece565b92915050565b6000819050919050565b610f0b81610ef8565b8114610f1657600080fd5b50565b600081359050610f2881610f02565b92915050565b600080600060608486031215610f4757610f46610e33565b5b6000610f5586828701610f19565b9350506020610f6686828701610f19565b9250506040610f7786828701610f19565b9150509250925092565b60008060408385031215610f9857610f97610e33565b5b6000610fa685828601610f19565b9250506020610fb785828601610f19565b9150509250929050565b600073ffffffffffffffffffffffffffffffffffffffff82169050919050565b6000819050919050565b6000611006611001610ffc84610fc1565b610fe1565b610fc1565b9050919050565b600061101882610feb565b9050919050565b600061102a8261100d565b9050919050565b61103a8161101f565b82525050565b60006020820190506110556000830184611031565b92915050565b60006020828403121561107157611070610e33565b5b600061107f84828501610f19565b91505092915050565b61109181610ef8565b82525050565b60006110a282610fc1565b9050919050565b6110b281611097565b82525050565b60006060820190506110cd6000830186611088565b6110da6020830185611088565b6110e760408301846110a9565b949350505050565b60006110fa82610fc1565b9050919050565b61110a816110ef565b82525050565b60006020820190506111256000830184611101565b92915050565b611134816110ef565b811461113f57600080fd5b50565b6000813590506111518161112b565b92915050565b600080fd5b6000601f19601f8301169050919050565b7f4e487b7100000000000000000000000000000000000000000000000000000000600052604160045260246000fd5b6111a58261115c565b810181811067ffffffffffffffff821117156111c4576111c361116d565b5b80604052505050565b60006111d7610e29565b90506111e3828261119c565b919050565b600067ffffffffffffffff8211156112035761120261116d565b5b602082029050602081019050919050565b600080fd5b600061122c611227846111e8565b6111cd565b9050808382526020820190506020840283018581111561124f5761124e611214565b5b835b8181101561127857806112648882610f19565b845260208401935050602081019050611251565b5050509392505050565b600082601f83011261129757611296611157565b5b81356112a7848260208601611219565b91505092915050565b600080fd5b600067ffffffffffffffff8211156112d0576112cf61116d565b5b6112d98261115c565b9050602081019050919050565b82818337600083830152505050565b6000611308611303846112b5565b6111cd565b905082815260208101848484011115611324576113236112b0565b5b61132f8482856112e6565b509392505050565b600082601f83011261134c5761134b611157565b5b813561135c8482602086016112f5565b91505092915050565b600080600080600060a0868803121561138157611380610e33565b5b600061138f88828901611142565b95505060206113a088828901611142565b945050604086013567ffffffffffffffff8111156113c1576113c0610e38565b5b6113cd88828901611282565b935050606086013567ffffffffffffffff8111156113ee576113ed610e38565b5b6113fa88828901611282565b925050608086013567ffffffffffffffff81111561141b5761141a610e38565b5b61142788828901611337565b9150509295509295909350565b61143d81610e3d565b82525050565b60006020820190506114586000830184611434565b92915050565b600080600080600060a0868803121561147a57611479610e33565b5b600061148888828901611142565b955050602061149988828901611142565b94505060406114aa88828901610f19565b93505060606114bb88828901610f19565b925050608086013567ffffffffffffffff8111156114dc576114db610e38565b5b6114e888828901611337565b9150509295509295909350565b60006020828403121561150b5761150a610e33565b5b600061151984828501611142565b91505092915050565b60006040820190506115376000830185611101565b6115446020830184611088565b9392505050565b60008151905061155a81610f02565b92915050565b60006020828403121561157657611575610e33565b5b60006115848482850161154b565b91505092915050565b600082825260208201905092915050565b7f4e6f7420656e6f75676820746f6b656e73000000000000000000000000000000600082015250565b60006115d460118361158d565b91506115df8261159e565b602082019050919050565b60006020820190508181036000830152611603816115c7565b9050919050565b600060408201905061161f6000830185611101565b61162c6020830184611101565b9392505050565b61163c81610ec2565b811461164757600080fd5b50565b60008151905061165981611633565b92915050565b60006020828403121561167557611674610e33565b5b60006116838482850161164a565b91505092915050565b7f43616e74206c69737420666f722073616c65206966206e6f7420617070726f7660008201527f656420666f7220616c6c00000000000000000000000000000000000000000000602082015250565b60006116e8602a8361158d565b91506116f38261168c565b604082019050919050565b60006020820190508181036000830152611717816116db565b9050919050565b7f4f6e6c79206f776e65722063616e20756e6c6973740000000000000000000000600082015250565b600061175460158361158d565b915061175f8261171e565b602082019050919050565b6000602082019050818103600083015261178381611747565b9050919050565b7f4e487b7100000000000000000000000000000000000000000000000000000000600052601160045260246000fd5b60006117c482610ef8565b91506117cf83610ef8565b9250828210156117e2576117e161178a565b5b828203905092915050565b7f4f776e61626c653a2063616c6c6572206973206e6f7420746865206f776e6572600082015250565b600061182360208361158d565b915061182e826117ed565b602082019050919050565b6000602082019050818103600083015261185281611816565b9050919050565b600061186482610ef8565b915061186f83610ef8565b9250817fffffffffffffffffffffffffffffffffffffffffffffffffffffffffffffffff04831182151516156118a8576118a761178a565b5b828202905092915050565b7f4e6f7420656e6f75676820455448000000000000000000000000000000000000600082015250565b60006118e9600e8361158d565b91506118f4826118b3565b602082019050919050565b60006020820190508181036000830152611918816118dc565b9050919050565b600061192a8261100d565b9050919050565b61193a8161191f565b82525050565b60006040820190506119556000830185611931565b6119626020830184611101565b9392505050565b7f43616e74206275792c206f66666572206973206e6f742076616c696400000000600082015250565b600061199f601c8361158d565b91506119aa82611969565b602082019050919050565b600060208201905081810360008301526119ce81611992565b9050919050565b600082825260208201905092915050565b50565b60006119f66000836119d5565b9150611a01826119e6565b600082019050919050565b600060a082019050611a216000830187611931565b611a2e6020830186611101565b611a3b6040830185611088565b611a486060830184611088565b8181036080830152611a59816119e9565b905095945050505050565b7f4f776e61626c653a206e6577206f776e657220697320746865207a65726f206160008201527f6464726573730000000000000000000000000000000000000000000000000000602082015250565b6000611ac060268361158d565b9150611acb82611a64565b604082019050919050565b60006020820190508181036000830152611aef81611ab3565b905091905056fea2646970667358221220fc75f0e08fe51674a9b3512400163ad2812a5d274e99af6bb3fedc162a53af5d64736f6c634300080b0033",
  "immutableReferences": {
    "2918": [
      {
        "length": 32,
        "start": 792
      },
      {
        "length": 32,
        "start": 1012
      },
      {
        "length": 32,
        "start": 1696
      },
      {
        "length": 32,
        "start": 2180
      },
      {
        "length": 32,
        "start": 2546
      }
    ]
  },
  "source": "// SPDX-License-Identifier: MIT\npragma solidity ^0.8.11;\n\nimport \"@openzeppelin/contracts/token/ERC1155/utils/ERC1155Holder.sol\";\nimport \"@openzeppelin/contracts/token/ERC1155/IERC1155.sol\";\n\nimport \"@openzeppelin/contracts/access/Ownable.sol\";\n\n\n/*\n Simple ERC1155 marketplace. It represents in-game items, so each option corresponds to an game item, like: Skin, Weapon, Armor.\n \n The features:\n - admin can add new items to the marketplace (provides ipfs metadata url, name, price, max supply)\n - admin can change price for each item\n - users can purchase item if minter didn't run out of supply and if saleStarted = true\n - users can list item for sale\n - users can buy items from other users\n - admin can withdraw funds from sale, but 10% goes to the developer address \"0x704C043CeB93bD6cBE570C6A2708c3E1C0310587\"\n - tokens are burnable\n - admin can flipSaleStarted, switching between sale active or disabled (saleStarted is true/false)\n Items are stored in array of struct GameItem.\n In ERC1155, tokens have id, which represents itemId.\n */\ncontract Market is ERC1155Holder, Ownable {\n\n    // TODO: add royalties, add pendingWithdrawals for payout\n\n    // ERC1155 contract\n    IERC1155 public immutable tokenContract;\n\n    mapping (uint256 => Offer) public offers;\n    // mapping (address => Offer) public offerByOwner;\n\n    // mapping (uint256 => mapping (address => Offer) userOffers;\n    // mapping (address => Offer) pendingOffers;\n\n    struct Offer {\n        uint256 price;\n        // uint256 itemId;\n        uint256 amount;\n        address payable owner;\n    }\n\n    // users can purchase item if minter didn't run out of supply and if saleStarted = true\n    // users can list item for sale\n    // users can buy items from other users\n\n    // admin can change price for each item\n    // users can purchase item if minter didn't run out of supply and if saleStarted = true\n    // users can list item for sale\n    // users can buy items from other users\n    // admin can withdraw funds from sale, but 10% goes to the developer address \"0x704C043CeB93bD6cBE570C6A2708c3E1C0310587\"\n\n    constructor (IERC1155 _tokenContract) {\n        require(_tokenContract.supportsInterface(type(IERC1155).interfaceId), \"Token is not supported\");\n        tokenContract = _tokenContract;\n    }\n\n    // list for sale, receives tokenId, amount of tokens, price\n    function list(uint256 tokenId, uint256 amount, uint256 price) public {\n        // transfer token from user\n        require(tokenContract.balanceOf(msg.sender, tokenId) >= amount, \"Not enough tokens\");\n        require(tokenContract.isApprovedForAll(msg.sender, address(this)), \"Cant list for sale if not approved for all\");\n\n        // NO transfer, insteaf we just approve\n        // tokenContract.safeTransferFrom(msg.sender, address(this), tokenId, amount, \"\");\n\n        // create selling offer\n        Offer memory offer = Offer(price, amount, payable(msg.sender));\n        offers[tokenId] = offer;\n    }\n \n    function unlist(uint256 tokenId, uint256 amount) public {\n        Offer storage offer = offers[tokenId];\n\n        require(offer.owner == msg.sender, \"Only owner can unlist\");\n\n        // tokenContract.safeTransferFrom(address(this), msg.sender, tokenId, amount, \"\");\n\n        offer.amount -= amount;\n\n        // if no more tokens, remove offer\n        if (offer.amount == 0) {\n            delete offers[tokenId];\n        }\n    }\n\n    function buy(uint256 tokenId, uint256 amount) payable public {\n        // find offer\n        Offer storage offer = offers[tokenId];\n        require(offer.amount >= amount, \"Not enough tokens\");\n\n        // check user passed enough ETH\n        require(msg.value >= offer.price * amount, \"Not enough ETH\");\n\n        if(!tokenContract.isApprovedForAll(offer.owner, address(this))) {\n            delete offers[tokenId];\n            require(false, \"Cant buy, offer is not valid\");\n        }\n\n        // transfer tokens to user\n        offer.amount -= amount;\n        tokenContract.safeTransferFrom(offer.owner, msg.sender, tokenId, amount, \"\");\n\n        // payout to buyer\n        // TODO: hack, change to pendingWithdrawals\n        uint256 rest = msg.value - offer.price * amount;\n        // TODO: take fee?\n\n        offer.owner.transfer(offer.price * amount);\n        payable(msg.sender).transfer(rest);\n\n        // if no more tokens, remove offer\n        if (offer.amount == 0) {\n            delete offers[tokenId];\n        }\n    }\n\n}",
  "sourcePath": "/home/mike/work/redattack/contracts/Market.sol",
  "compiler": {
    "name": "solc",
    "version": "0.8.11+commit.d7f03943.Emscripten.clang"
  },
  "schemaVersion": "3.4.4",
  "updatedAt": "2022-01-26T11:33:31.970Z",
  "devdoc": {
    "kind": "dev",
    "methods": {
      "owner()": {
        "details": "Returns the address of the current owner."
      },
      "renounceOwnership()": {
        "details": "Leaves the contract without owner. It will not be possible to call `onlyOwner` functions anymore. Can only be called by the current owner. NOTE: Renouncing ownership will leave the contract without an owner, thereby removing any functionality that is only available to the owner."
      },
      "supportsInterface(bytes4)": {
        "details": "See {IERC165-supportsInterface}."
      },
      "transferOwnership(address)": {
        "details": "Transfers ownership of the contract to a new account (`newOwner`). Can only be called by the current owner."
      }
    },
    "version": 1
  },
  "userdoc": {
    "kind": "user",
    "methods": {},
    "version": 1
  }
}