{
  "contractName": "RedAttackNFT",
  "abi": [
    {
      "inputs": [
        {
          "internalType": "string",
          "name": "_name",
          "type": "string"
        },
        {
          "internalType": "string",
          "name": "_symbol",
          "type": "string"
        },
        {
          "internalType": "string",
          "name": "_initBaseURI",
          "type": "string"
        },
        {
          "internalType": "string",
          "name": "_initNotRevealedUri",
          "type": "string"
        }
      ],
      "stateMutability": "nonpayable",
      "type": "constructor"
    },
    {
      "anonymous": false,
      "inputs": [
        {
          "indexed": true,
          "internalType": "address",
          "name": "owner",
          "type": "address"
        },
        {
          "indexed": true,
          "internalType": "address",
          "name": "approved",
          "type": "address"
        },
        {
          "indexed": true,
          "internalType": "uint256",
          "name": "tokenId",
          "type": "uint256"
        }
      ],
      "name": "Approval",
      "type": "event"
    },
    {
      "anonymous": false,
      "inputs": [
        {
          "indexed": true,
          "internalType": "address",
          "name": "owner",
          "type": "address"
        },
        {
          "indexed": true,
          "internalType": "address",
          "name": "operator",
          "type": "address"
        },
        {
          "indexed": false,
          "internalType": "bool",
          "name": "approved",
          "type": "bool"
        }
      ],
      "name": "ApprovalForAll",
      "type": "event"
    },
    {
      "anonymous": false,
      "inputs": [
        {
          "indexed": true,
          "internalType": "address",
          "name": "previousOwner",
          "type": "address"
        },
        {
          "indexed": true,
          "internalType": "address",
          "name": "newOwner",
          "type": "address"
        }
      ],
      "name": "OwnershipTransferred",
      "type": "event"
    },
    {
      "anonymous": false,
      "inputs": [
        {
          "indexed": true,
          "internalType": "address",
          "name": "from",
          "type": "address"
        },
        {
          "indexed": true,
          "internalType": "address",
          "name": "to",
          "type": "address"
        },
        {
          "indexed": true,
          "internalType": "uint256",
          "name": "tokenId",
          "type": "uint256"
        }
      ],
      "name": "Transfer",
      "type": "event"
    },
    {
      "inputs": [
        {
          "internalType": "address",
          "name": "",
          "type": "address"
        }
      ],
      "name": "addressMintedBalance",
      "outputs": [
        {
          "internalType": "uint256",
          "name": "",
          "type": "uint256"
        }
      ],
      "stateMutability": "view",
      "type": "function"
    },
    {
      "inputs": [
        {
          "internalType": "address",
          "name": "to",
          "type": "address"
        },
        {
          "internalType": "uint256",
          "name": "tokenId",
          "type": "uint256"
        }
      ],
      "name": "approve",
      "outputs": [],
      "stateMutability": "nonpayable",
      "type": "function"
    },
    {
      "inputs": [
        {
          "internalType": "address",
          "name": "owner",
          "type": "address"
        }
      ],
      "name": "balanceOf",
      "outputs": [
        {
          "internalType": "uint256",
          "name": "",
          "type": "uint256"
        }
      ],
      "stateMutability": "view",
      "type": "function"
    },
    {
      "inputs": [],
      "name": "cost",
      "outputs": [
        {
          "internalType": "uint256",
          "name": "",
          "type": "uint256"
        }
      ],
      "stateMutability": "view",
      "type": "function"
    },
    {
      "inputs": [
        {
          "internalType": "uint256",
          "name": "tokenId",
          "type": "uint256"
        }
      ],
      "name": "getApproved",
      "outputs": [
        {
          "internalType": "address",
          "name": "",
          "type": "address"
        }
      ],
      "stateMutability": "view",
      "type": "function"
    },
    {
      "inputs": [
        {
          "internalType": "address",
          "name": "owner",
          "type": "address"
        },
        {
          "internalType": "address",
          "name": "operator",
          "type": "address"
        }
      ],
      "name": "isApprovedForAll",
      "outputs": [
        {
          "internalType": "bool",
          "name": "",
          "type": "bool"
        }
      ],
      "stateMutability": "view",
      "type": "function"
    },
    {
      "inputs": [],
      "name": "maxMintAmount",
      "outputs": [
        {
          "internalType": "uint256",
          "name": "",
          "type": "uint256"
        }
      ],
      "stateMutability": "view",
      "type": "function"
    },
    {
      "inputs": [],
      "name": "maxSupply",
      "outputs": [
        {
          "internalType": "uint256",
          "name": "",
          "type": "uint256"
        }
      ],
      "stateMutability": "view",
      "type": "function"
    },
    {
      "inputs": [],
      "name": "name",
      "outputs": [
        {
          "internalType": "string",
          "name": "",
          "type": "string"
        }
      ],
      "stateMutability": "view",
      "type": "function"
    },
    {
      "inputs": [],
      "name": "nftPerAddressLimit",
      "outputs": [
        {
          "internalType": "uint256",
          "name": "",
          "type": "uint256"
        }
      ],
      "stateMutability": "view",
      "type": "function"
    },
    {
      "inputs": [],
      "name": "onlyWhitelisted",
      "outputs": [
        {
          "internalType": "bool",
          "name": "",
          "type": "bool"
        }
      ],
      "stateMutability": "view",
      "type": "function"
    },
    {
      "inputs": [],
      "name": "owner",
      "outputs": [
        {
          "internalType": "address",
          "name": "",
          "type": "address"
        }
      ],
      "stateMutability": "view",
      "type": "function"
    },
    {
      "inputs": [
        {
          "internalType": "uint256",
          "name": "tokenId",
          "type": "uint256"
        }
      ],
      "name": "ownerOf",
      "outputs": [
        {
          "internalType": "address",
          "name": "",
          "type": "address"
        }
      ],
      "stateMutability": "view",
      "type": "function"
    },
    {
      "inputs": [],
      "name": "paused",
      "outputs": [
        {
          "internalType": "bool",
          "name": "",
          "type": "bool"
        }
      ],
      "stateMutability": "view",
      "type": "function"
    },
    {
      "inputs": [],
      "name": "renounceOwnership",
      "outputs": [],
      "stateMutability": "nonpayable",
      "type": "function"
    },
    {
      "inputs": [],
      "name": "revealed",
      "outputs": [
        {
          "internalType": "bool",
          "name": "",
          "type": "bool"
        }
      ],
      "stateMutability": "view",
      "type": "function"
    },
    {
      "inputs": [
        {
          "internalType": "address",
          "name": "from",
          "type": "address"
        },
        {
          "internalType": "address",
          "name": "to",
          "type": "address"
        },
        {
          "internalType": "uint256",
          "name": "tokenId",
          "type": "uint256"
        }
      ],
      "name": "safeTransferFrom",
      "outputs": [],
      "stateMutability": "nonpayable",
      "type": "function"
    },
    {
      "inputs": [
        {
          "internalType": "address",
          "name": "from",
          "type": "address"
        },
        {
          "internalType": "address",
          "name": "to",
          "type": "address"
        },
        {
          "internalType": "uint256",
          "name": "tokenId",
          "type": "uint256"
        },
        {
          "internalType": "bytes",
          "name": "_data",
          "type": "bytes"
        }
      ],
      "name": "safeTransferFrom",
      "outputs": [],
      "stateMutability": "nonpayable",
      "type": "function"
    },
    {
      "inputs": [
        {
          "internalType": "address",
          "name": "operator",
          "type": "address"
        },
        {
          "internalType": "bool",
          "name": "approved",
          "type": "bool"
        }
      ],
      "name": "setApprovalForAll",
      "outputs": [],
      "stateMutability": "nonpayable",
      "type": "function"
    },
    {
      "inputs": [
        {
          "internalType": "bytes4",
          "name": "interfaceId",
          "type": "bytes4"
        }
      ],
      "name": "supportsInterface",
      "outputs": [
        {
          "internalType": "bool",
          "name": "",
          "type": "bool"
        }
      ],
      "stateMutability": "view",
      "type": "function"
    },
    {
      "inputs": [],
      "name": "symbol",
      "outputs": [
        {
          "internalType": "string",
          "name": "",
          "type": "string"
        }
      ],
      "stateMutability": "view",
      "type": "function"
    },
    {
      "inputs": [
        {
          "internalType": "uint256",
          "name": "index",
          "type": "uint256"
        }
      ],
      "name": "tokenByIndex",
      "outputs": [
        {
          "internalType": "uint256",
          "name": "",
          "type": "uint256"
        }
      ],
      "stateMutability": "view",
      "type": "function"
    },
    {
      "inputs": [
        {
          "internalType": "address",
          "name": "owner",
          "type": "address"
        },
        {
          "internalType": "uint256",
          "name": "index",
          "type": "uint256"
        }
      ],
      "name": "tokenOfOwnerByIndex",
      "outputs": [
        {
          "internalType": "uint256",
          "name": "",
          "type": "uint256"
        }
      ],
      "stateMutability": "view",
      "type": "function"
    },
    {
      "inputs": [],
      "name": "totalSupply",
      "outputs": [
        {
          "internalType": "uint256",
          "name": "",
          "type": "uint256"
        }
      ],
      "stateMutability": "view",
      "type": "function"
    },
    {
      "inputs": [
        {
          "internalType": "address",
          "name": "from",
          "type": "address"
        },
        {
          "internalType": "address",
          "name": "to",
          "type": "address"
        },
        {
          "internalType": "uint256",
          "name": "tokenId",
          "type": "uint256"
        }
      ],
      "name": "transferFrom",
      "outputs": [],
      "stateMutability": "nonpayable",
      "type": "function"
    },
    {
      "inputs": [
        {
          "internalType": "address",
          "name": "newOwner",
          "type": "address"
        }
      ],
      "name": "transferOwnership",
      "outputs": [],
      "stateMutability": "nonpayable",
      "type": "function"
    },
    {
      "inputs": [
        {
          "internalType": "uint256",
          "name": "",
          "type": "uint256"
        }
      ],
      "name": "whitelistedAddresses",
      "outputs": [
        {
          "internalType": "address",
          "name": "",
          "type": "address"
        }
      ],
      "stateMutability": "view",
      "type": "function"
    },
    {
      "inputs": [
        {
          "internalType": "uint256",
          "name": "_mintAmount",
          "type": "uint256"
        }
      ],
      "name": "mint",
      "outputs": [],
      "stateMutability": "payable",
      "type": "function"
    },
    {
      "inputs": [
        {
          "internalType": "address",
          "name": "_user",
          "type": "address"
        }
      ],
      "name": "isWhitelisted",
      "outputs": [
        {
          "internalType": "bool",
          "name": "",
          "type": "bool"
        }
      ],
      "stateMutability": "view",
      "type": "function"
    },
    {
      "inputs": [
        {
          "internalType": "address",
          "name": "_owner",
          "type": "address"
        }
      ],
      "name": "walletOfOwner",
      "outputs": [
        {
          "internalType": "uint256[]",
          "name": "",
          "type": "uint256[]"
        }
      ],
      "stateMutability": "view",
      "type": "function"
    },
    {
      "inputs": [
        {
          "internalType": "uint256",
          "name": "tokenId",
          "type": "uint256"
        }
      ],
      "name": "tokenURI",
      "outputs": [
        {
          "internalType": "string",
          "name": "",
          "type": "string"
        }
      ],
      "stateMutability": "view",
      "type": "function"
    },
    {
      "inputs": [],
      "name": "reveal",
      "outputs": [],
      "stateMutability": "nonpayable",
      "type": "function"
    },
    {
      "inputs": [
        {
          "internalType": "uint256",
          "name": "_limit",
          "type": "uint256"
        }
      ],
      "name": "setNftPerAddressLimit",
      "outputs": [],
      "stateMutability": "nonpayable",
      "type": "function"
    },
    {
      "inputs": [
        {
          "internalType": "uint256",
          "name": "_newCost",
          "type": "uint256"
        }
      ],
      "name": "setCost",
      "outputs": [],
      "stateMutability": "nonpayable",
      "type": "function"
    },
    {
      "inputs": [
        {
          "internalType": "uint256",
          "name": "_newmaxMintAmount",
          "type": "uint256"
        }
      ],
      "name": "setmaxMintAmount",
      "outputs": [],
      "stateMutability": "nonpayable",
      "type": "function"
    },
    {
      "inputs": [
        {
          "internalType": "string",
          "name": "_newBaseURI",
          "type": "string"
        }
      ],
      "name": "setBaseURI",
      "outputs": [],
      "stateMutability": "nonpayable",
      "type": "function"
    },
    {
      "inputs": [
        {
          "internalType": "string",
          "name": "_newBaseExtension",
          "type": "string"
        }
      ],
      "name": "setBaseExtension",
      "outputs": [],
      "stateMutability": "nonpayable",
      "type": "function"
    },
    {
      "inputs": [
        {
          "internalType": "string",
          "name": "_notRevealedURI",
          "type": "string"
        }
      ],
      "name": "setNotRevealedURI",
      "outputs": [],
      "stateMutability": "nonpayable",
      "type": "function"
    },
    {
      "inputs": [
        {
          "internalType": "bool",
          "name": "_state",
          "type": "bool"
        }
      ],
      "name": "pause",
      "outputs": [],
      "stateMutability": "nonpayable",
      "type": "function"
    },
    {
      "inputs": [
        {
          "internalType": "bool",
          "name": "_state",
          "type": "bool"
        }
      ],
      "name": "setOnlyWhitelisted",
      "outputs": [],
      "stateMutability": "nonpayable",
      "type": "function"
    },
    {
      "inputs": [
        {
          "internalType": "address[]",
          "name": "_users",
          "type": "address[]"
        }
      ],
      "name": "whitelistUsers",
      "outputs": [],
      "stateMutability": "nonpayable",
      "type": "function"
    },
    {
      "inputs": [],
      "name": "withdraw",
      "outputs": [],
      "stateMutability": "payable",
      "type": "function"
    }
  ],
  "bytecode": "0x60806040526040518060400160405280600581526020017f2e6a736f6e000000000000000000000000000000000000000000000000000000815250600c90805190602001906200005192919062000417565b5067010a741a46278000600e55611d4c600f55600360105560036011556000601260006101000a81548160ff0219169083151502179055506000601260016101000a81548160ff0219169083151502179055506001601260026101000a81548160ff02191690831515021790555073de3b22caaad25e65c839c2a3d852d665669edd5c601260036101000a81548173ffffffffffffffffffffffffffffffffffffffff021916908373ffffffffffffffffffffffffffffffffffffffff1602179055503480156200012157600080fd5b50604051620056ed380380620056ed833981810160405281019062000147919062000664565b838381600090805190602001906200016192919062000417565b5080600190805190602001906200017a92919062000417565b5050506200019d62000191620001c960201b60201c565b620001d160201b60201c565b620001ae826200029760201b60201c565b620001bf816200034260201b60201c565b505050506200083a565b600033905090565b6000600a60009054906101000a900473ffffffffffffffffffffffffffffffffffffffff16905081600a60006101000a81548173ffffffffffffffffffffffffffffffffffffffff021916908373ffffffffffffffffffffffffffffffffffffffff1602179055508173ffffffffffffffffffffffffffffffffffffffff168173ffffffffffffffffffffffffffffffffffffffff167f8be0079c531659141344cd1fd0a4f28419497f9722a3daafe3b4186f6b6457e060405160405180910390a35050565b620002a7620001c960201b60201c565b73ffffffffffffffffffffffffffffffffffffffff16620002cd620003ed60201b60201c565b73ffffffffffffffffffffffffffffffffffffffff161462000326576040517f08c379a00000000000000000000000000000000000000000000000000000000081526004016200031d90620007b3565b60405180910390fd5b80600b90805190602001906200033e92919062000417565b5050565b62000352620001c960201b60201c565b73ffffffffffffffffffffffffffffffffffffffff1662000378620003ed60201b60201c565b73ffffffffffffffffffffffffffffffffffffffff1614620003d1576040517f08c379a0000000000000000000000000000000000000000000000000000000008152600401620003c890620007b3565b60405180910390fd5b80600d9080519060200190620003e992919062000417565b5050565b6000600a60009054906101000a900473ffffffffffffffffffffffffffffffffffffffff16905090565b828054620004259062000804565b90600052602060002090601f01602090048101928262000449576000855562000495565b82601f106200046457805160ff191683800117855562000495565b8280016001018555821562000495579182015b828111156200049457825182559160200191906001019062000477565b5b509050620004a49190620004a8565b5090565b5b80821115620004c3576000816000905550600101620004a9565b5090565b6000604051905090565b600080fd5b600080fd5b600080fd5b600080fd5b6000601f19601f8301169050919050565b7f4e487b7100000000000000000000000000000000000000000000000000000000600052604160045260246000fd5b6200053082620004e5565b810181811067ffffffffffffffff82111715620005525762000551620004f6565b5b80604052505050565b600062000567620004c7565b905062000575828262000525565b919050565b600067ffffffffffffffff821115620005985762000597620004f6565b5b620005a382620004e5565b9050602081019050919050565b60005b83811015620005d0578082015181840152602081019050620005b3565b83811115620005e0576000848401525b50505050565b6000620005fd620005f7846200057a565b6200055b565b9050828152602081018484840111156200061c576200061b620004e0565b5b62000629848285620005b0565b509392505050565b600082601f830112620006495762000648620004db565b5b81516200065b848260208601620005e6565b91505092915050565b60008060008060808587031215620006815762000680620004d1565b5b600085015167ffffffffffffffff811115620006a257620006a1620004d6565b5b620006b08782880162000631565b945050602085015167ffffffffffffffff811115620006d457620006d3620004d6565b5b620006e28782880162000631565b935050604085015167ffffffffffffffff811115620007065762000705620004d6565b5b620007148782880162000631565b925050606085015167ffffffffffffffff811115620007385762000737620004d6565b5b620007468782880162000631565b91505092959194509250565b600082825260208201905092915050565b7f4f776e61626c653a2063616c6c6572206973206e6f7420746865206f776e6572600082015250565b60006200079b60208362000752565b9150620007a88262000763565b602082019050919050565b60006020820190508181036000830152620007ce816200078c565b9050919050565b7f4e487b7100000000000000000000000000000000000000000000000000000000600052602260045260246000fd5b600060028204905060018216806200081d57607f821691505b60208210811415620008345762000833620007d5565b5b50919050565b614ea3806200084a6000396000f3fe6080604052600436106102515760003560e01c80636352211e11610139578063b88d4fde116100b6578063d5abeb011161007a578063d5abeb01146108ba578063da3ef23f146108e5578063e985e9c51461090e578063edec5f271461094b578063f2c4ce1e14610974578063f2fde38b1461099d57610251565b8063b88d4fde146107c3578063ba4e5c49146107ec578063ba7d2c7614610829578063c87b56dd14610854578063d0eb26b01461089157610251565b806395d89b41116100fd57806395d89b41146107115780639c70b5121461073c578063a0712d6814610767578063a22cb46514610783578063a475b5dd146107ac57610251565b80636352211e1461062c57806370a0823114610669578063715018a6146106a65780637f00c7a6146106bd5780638da5cb5b146106e657610251565b80632f745c59116101d2578063438b630011610196578063438b63001461050a57806344a0d68a146105475780634f6ccce71461057057806351830227146105ad57806355f804b3146105d85780635c975abb1461060157610251565b80632f745c59146104345780633af32abf146104715780633c952764146104ae5780633ccfd60b146104d757806342842e0e146104e157610251565b806313faede61161021957806313faede61461034d57806318160ddd1461037857806318cae269146103a3578063239c70ae146103e057806323b872dd1461040b57610251565b806301ffc9a71461025657806302329a291461029357806306fdde03146102bc578063081812fc146102e7578063095ea7b314610324575b600080fd5b34801561026257600080fd5b5061027d600480360381019061027891906134d6565b6109c6565b60405161028a919061351e565b60405180910390f35b34801561029f57600080fd5b506102ba60048036038101906102b59190613565565b610a40565b005b3480156102c857600080fd5b506102d1610ad9565b6040516102de919061362b565b60405180910390f35b3480156102f357600080fd5b5061030e60048036038101906103099190613683565b610b6b565b60405161031b91906136f1565b60405180910390f35b34801561033057600080fd5b5061034b60048036038101906103469190613738565b610bf0565b005b34801561035957600080fd5b50610362610d08565b60405161036f9190613787565b60405180910390f35b34801561038457600080fd5b5061038d610d0e565b60405161039a9190613787565b60405180910390f35b3480156103af57600080fd5b506103ca60048036038101906103c591906137a2565b610d1b565b6040516103d79190613787565b60405180910390f35b3480156103ec57600080fd5b506103f5610d33565b6040516104029190613787565b60405180910390f35b34801561041757600080fd5b50610432600480360381019061042d91906137cf565b610d39565b005b34801561044057600080fd5b5061045b60048036038101906104569190613738565b610d99565b6040516104689190613787565b60405180910390f35b34801561047d57600080fd5b50610498600480360381019061049391906137a2565b610e3e565b6040516104a5919061351e565b60405180910390f35b3480156104ba57600080fd5b506104d560048036038101906104d09190613565565b610eed565b005b6104df610f86565b005b3480156104ed57600080fd5b50610508600480360381019061050391906137cf565b61107b565b005b34801561051657600080fd5b50610531600480360381019061052c91906137a2565b61109b565b60405161053e91906138e0565b60405180910390f35b34801561055357600080fd5b5061056e60048036038101906105699190613683565b611149565b005b34801561057c57600080fd5b5061059760048036038101906105929190613683565b6111cf565b6040516105a49190613787565b60405180910390f35b3480156105b957600080fd5b506105c2611240565b6040516105cf919061351e565b60405180910390f35b3480156105e457600080fd5b506105ff60048036038101906105fa9190613a37565b611253565b005b34801561060d57600080fd5b506106166112e9565b604051610623919061351e565b60405180910390f35b34801561063857600080fd5b50610653600480360381019061064e9190613683565b6112fc565b60405161066091906136f1565b60405180910390f35b34801561067557600080fd5b50610690600480360381019061068b91906137a2565b6113ae565b60405161069d9190613787565b60405180910390f35b3480156106b257600080fd5b506106bb611466565b005b3480156106c957600080fd5b506106e460048036038101906106df9190613683565b6114ee565b005b3480156106f257600080fd5b506106fb611574565b60405161070891906136f1565b60405180910390f35b34801561071d57600080fd5b5061072661159e565b604051610733919061362b565b60405180910390f35b34801561074857600080fd5b50610751611630565b60405161075e919061351e565b60405180910390f35b610781600480360381019061077c9190613683565b611643565b005b34801561078f57600080fd5b506107aa60048036038101906107a59190613a80565b611a3d565b005b3480156107b857600080fd5b506107c1611a53565b005b3480156107cf57600080fd5b506107ea60048036038101906107e59190613b61565b611aec565b005b3480156107f857600080fd5b50610813600480360381019061080e9190613683565b611b4e565b60405161082091906136f1565b60405180910390f35b34801561083557600080fd5b5061083e611b8d565b60405161084b9190613787565b60405180910390f35b34801561086057600080fd5b5061087b60048036038101906108769190613683565b611b93565b604051610888919061362b565b60405180910390f35b34801561089d57600080fd5b506108b860048036038101906108b39190613683565b611cec565b005b3480156108c657600080fd5b506108cf611d72565b6040516108dc9190613787565b60405180910390f35b3480156108f157600080fd5b5061090c60048036038101906109079190613a37565b611d78565b005b34801561091a57600080fd5b5061093560048036038101906109309190613be4565b611e0e565b604051610942919061351e565b60405180910390f35b34801561095757600080fd5b50610972600480360381019061096d9190613c84565b611ea2565b005b34801561098057600080fd5b5061099b60048036038101906109969190613a37565b611f42565b005b3480156109a957600080fd5b506109c460048036038101906109bf91906137a2565b611fd8565b005b60007f780e9d63000000000000000000000000000000000000000000000000000000007bffffffffffffffffffffffffffffffffffffffffffffffffffffffff1916827bffffffffffffffffffffffffffffffffffffffffffffffffffffffff19161480610a395750610a38826120d0565b5b9050919050565b610a486121b2565b73ffffffffffffffffffffffffffffffffffffffff16610a66611574565b73ffffffffffffffffffffffffffffffffffffffff1614610abc576040517f08c379a0000000000000000000000000000000000000000000000000000000008152600401610ab390613d1d565b60405180910390fd5b80601260006101000a81548160ff02191690831515021790555050565b606060008054610ae890613d6c565b80601f0160208091040260200160405190810160405280929190818152602001828054610b1490613d6c565b8015610b615780601f10610b3657610100808354040283529160200191610b61565b820191906000526020600020905b815481529060010190602001808311610b4457829003601f168201915b5050505050905090565b6000610b76826121ba565b610bb5576040517f08c379a0000000000000000000000000000000000000000000000000000000008152600401610bac90613e10565b60405180910390fd5b6004600083815260200190815260200160002060009054906101000a900473ffffffffffffffffffffffffffffffffffffffff169050919050565b6000610bfb826112fc565b90508073ffffffffffffffffffffffffffffffffffffffff168373ffffffffffffffffffffffffffffffffffffffff161415610c6c576040517f08c379a0000000000000000000000000000000000000000000000000000000008152600401610c6390613ea2565b60405180910390fd5b8073ffffffffffffffffffffffffffffffffffffffff16610c8b6121b2565b73ffffffffffffffffffffffffffffffffffffffff161480610cba5750610cb981610cb46121b2565b611e0e565b5b610cf9576040517f08c379a0000000000000000000000000000000000000000000000000000000008152600401610cf090613f34565b60405180910390fd5b610d038383612226565b505050565b600e5481565b6000600880549050905090565b60146020528060005260406000206000915090505481565b60105481565b610d4a610d446121b2565b826122df565b610d89576040517f08c379a0000000000000000000000000000000000000000000000000000000008152600401610d8090613fc6565b60405180910390fd5b610d948383836123bd565b505050565b6000610da4836113ae565b8210610de5576040517f08c379a0000000000000000000000000000000000000000000000000000000008152600401610ddc90614058565b60405180910390fd5b600660008473ffffffffffffffffffffffffffffffffffffffff1673ffffffffffffffffffffffffffffffffffffffff168152602001908152602001600020600083815260200190815260200160002054905092915050565b600080600090505b601380549050811015610ee2578273ffffffffffffffffffffffffffffffffffffffff1660138281548110610e7e57610e7d614078565b5b9060005260206000200160009054906101000a900473ffffffffffffffffffffffffffffffffffffffff1673ffffffffffffffffffffffffffffffffffffffff161415610ecf576001915050610ee8565b8080610eda906140d6565b915050610e46565b50600090505b919050565b610ef56121b2565b73ffffffffffffffffffffffffffffffffffffffff16610f13611574565b73ffffffffffffffffffffffffffffffffffffffff1614610f69576040517f08c379a0000000000000000000000000000000000000000000000000000000008152600401610f6090613d1d565b60405180910390fd5b80601260026101000a81548160ff02191690831515021790555050565b610f8e6121b2565b73ffffffffffffffffffffffffffffffffffffffff16610fac611574565b73ffffffffffffffffffffffffffffffffffffffff1614611002576040517f08c379a0000000000000000000000000000000000000000000000000000000008152600401610ff990613d1d565b60405180910390fd5b60003373ffffffffffffffffffffffffffffffffffffffff164760405161102890614150565b60006040518083038185875af1925050503d8060008114611065576040519150601f19603f3d011682016040523d82523d6000602084013e61106a565b606091505b505090508061107857600080fd5b50565b61109683838360405180602001604052806000815250611aec565b505050565b606060006110a8836113ae565b905060008167ffffffffffffffff8111156110c6576110c561390c565b5b6040519080825280602002602001820160405280156110f45781602001602082028036833780820191505090505b50905060005b8281101561113e5761110c8582610d99565b82828151811061111f5761111e614078565b5b6020026020010181815250508080611136906140d6565b9150506110fa565b508092505050919050565b6111516121b2565b73ffffffffffffffffffffffffffffffffffffffff1661116f611574565b73ffffffffffffffffffffffffffffffffffffffff16146111c5576040517f08c379a00000000000000000000000000000000000000000000000000000000081526004016111bc90613d1d565b60405180910390fd5b80600e8190555050565b60006111d9610d0e565b821061121a576040517f08c379a0000000000000000000000000000000000000000000000000000000008152600401611211906141d7565b60405180910390fd5b6008828154811061122e5761122d614078565b5b90600052602060002001549050919050565b601260019054906101000a900460ff1681565b61125b6121b2565b73ffffffffffffffffffffffffffffffffffffffff16611279611574565b73ffffffffffffffffffffffffffffffffffffffff16146112cf576040517f08c379a00000000000000000000000000000000000000000000000000000000081526004016112c690613d1d565b60405180910390fd5b80600b90805190602001906112e5929190613306565b5050565b601260009054906101000a900460ff1681565b6000806002600084815260200190815260200160002060009054906101000a900473ffffffffffffffffffffffffffffffffffffffff169050600073ffffffffffffffffffffffffffffffffffffffff168173ffffffffffffffffffffffffffffffffffffffff1614156113a5576040517f08c379a000000000000000000000000000000000000000000000000000000000815260040161139c90614269565b60405180910390fd5b80915050919050565b60008073ffffffffffffffffffffffffffffffffffffffff168273ffffffffffffffffffffffffffffffffffffffff16141561141f576040517f08c379a0000000000000000000000000000000000000000000000000000000008152600401611416906142fb565b60405180910390fd5b600360008373ffffffffffffffffffffffffffffffffffffffff1673ffffffffffffffffffffffffffffffffffffffff168152602001908152602001600020549050919050565b61146e6121b2565b73ffffffffffffffffffffffffffffffffffffffff1661148c611574565b73ffffffffffffffffffffffffffffffffffffffff16146114e2576040517f08c379a00000000000000000000000000000000000000000000000000000000081526004016114d990613d1d565b60405180910390fd5b6114ec6000612619565b565b6114f66121b2565b73ffffffffffffffffffffffffffffffffffffffff16611514611574565b73ffffffffffffffffffffffffffffffffffffffff161461156a576040517f08c379a000000000000000000000000000000000000000000000000000000000815260040161156190613d1d565b60405180910390fd5b8060108190555050565b6000600a60009054906101000a900473ffffffffffffffffffffffffffffffffffffffff16905090565b6060600180546115ad90613d6c565b80601f01602080910402602001604051908101604052809291908181526020018280546115d990613d6c565b80156116265780601f106115fb57610100808354040283529160200191611626565b820191906000526020600020905b81548152906001019060200180831161160957829003601f168201915b5050505050905090565b601260029054906101000a900460ff1681565b601260009054906101000a900460ff1615611693576040517f08c379a000000000000000000000000000000000000000000000000000000000815260040161168a90614367565b60405180910390fd5b600061169d610d0e565b9050600082116116e2576040517f08c379a00000000000000000000000000000000000000000000000000000000081526004016116d9906143d3565b60405180910390fd5b601054821115611727576040517f08c379a000000000000000000000000000000000000000000000000000000000815260040161171e90614465565b60405180910390fd5b600f5482826117369190614485565b1115611777576040517f08c379a000000000000000000000000000000000000000000000000000000000815260040161176e90614527565b60405180910390fd5b61177f611574565b73ffffffffffffffffffffffffffffffffffffffff163373ffffffffffffffffffffffffffffffffffffffff16146118fc5760011515601260029054906101000a900460ff16151514156118ab576117d633610e3e565b611815576040517f08c379a000000000000000000000000000000000000000000000000000000000815260040161180c90614593565b60405180910390fd5b6000601460003373ffffffffffffffffffffffffffffffffffffffff1673ffffffffffffffffffffffffffffffffffffffff16815260200190815260200160002054905060115483826118689190614485565b11156118a9576040517f08c379a00000000000000000000000000000000000000000000000000000000081526004016118a0906145ff565b60405180910390fd5b505b81600e546118b9919061461f565b3410156118fb576040517f08c379a00000000000000000000000000000000000000000000000000000000081526004016118f2906146c5565b60405180910390fd5b5b6000600190505b82811161198757601460003373ffffffffffffffffffffffffffffffffffffffff1673ffffffffffffffffffffffffffffffffffffffff168152602001908152602001600020600081548092919061195a906140d6565b919050555061197433828461196f9190614485565b6126df565b808061197f906140d6565b915050611903565b506000601260039054906101000a900473ffffffffffffffffffffffffffffffffffffffff1673ffffffffffffffffffffffffffffffffffffffff1660646007346119d2919061461f565b6119dc9190614714565b6040516119e890614150565b60006040518083038185875af1925050503d8060008114611a25576040519150601f19603f3d011682016040523d82523d6000602084013e611a2a565b606091505b5050905080611a3857600080fd5b505050565b611a4f611a486121b2565b83836126fd565b5050565b611a5b6121b2565b73ffffffffffffffffffffffffffffffffffffffff16611a79611574565b73ffffffffffffffffffffffffffffffffffffffff1614611acf576040517f08c379a0000000000000000000000000000000000000000000000000000000008152600401611ac690613d1d565b60405180910390fd5b6001601260016101000a81548160ff021916908315150217905550565b611afd611af76121b2565b836122df565b611b3c576040517f08c379a0000000000000000000000000000000000000000000000000000000008152600401611b3390613fc6565b60405180910390fd5b611b488484848461286a565b50505050565b60138181548110611b5e57600080fd5b906000526020600020016000915054906101000a900473ffffffffffffffffffffffffffffffffffffffff1681565b60115481565b6060611b9e826121ba565b611bdd576040517f08c379a0000000000000000000000000000000000000000000000000000000008152600401611bd4906147b7565b60405180910390fd5b60001515601260019054906101000a900460ff1615151415611c8b57600d8054611c0690613d6c565b80601f0160208091040260200160405190810160405280929190818152602001828054611c3290613d6c565b8015611c7f5780601f10611c5457610100808354040283529160200191611c7f565b820191906000526020600020905b815481529060010190602001808311611c6257829003601f168201915b50505050509050611ce7565b6000611c956128c6565b90506000815111611cb55760405180602001604052806000815250611ce3565b80611cbf84612958565b600c604051602001611cd3939291906148a7565b6040516020818303038152906040525b9150505b919050565b611cf46121b2565b73ffffffffffffffffffffffffffffffffffffffff16611d12611574565b73ffffffffffffffffffffffffffffffffffffffff1614611d68576040517f08c379a0000000000000000000000000000000000000000000000000000000008152600401611d5f90613d1d565b60405180910390fd5b8060118190555050565b600f5481565b611d806121b2565b73ffffffffffffffffffffffffffffffffffffffff16611d9e611574565b73ffffffffffffffffffffffffffffffffffffffff1614611df4576040517f08c379a0000000000000000000000000000000000000000000000000000000008152600401611deb90613d1d565b60405180910390fd5b80600c9080519060200190611e0a929190613306565b5050565b6000600560008473ffffffffffffffffffffffffffffffffffffffff1673ffffffffffffffffffffffffffffffffffffffff16815260200190815260200160002060008373ffffffffffffffffffffffffffffffffffffffff1673ffffffffffffffffffffffffffffffffffffffff16815260200190815260200160002060009054906101000a900460ff16905092915050565b611eaa6121b2565b73ffffffffffffffffffffffffffffffffffffffff16611ec8611574565b73ffffffffffffffffffffffffffffffffffffffff1614611f1e576040517f08c379a0000000000000000000000000000000000000000000000000000000008152600401611f1590613d1d565b60405180910390fd5b60136000611f2c919061338c565b818160139190611f3d9291906133ad565b505050565b611f4a6121b2565b73ffffffffffffffffffffffffffffffffffffffff16611f68611574565b73ffffffffffffffffffffffffffffffffffffffff1614611fbe576040517f08c379a0000000000000000000000000000000000000000000000000000000008152600401611fb590613d1d565b60405180910390fd5b80600d9080519060200190611fd4929190613306565b5050565b611fe06121b2565b73ffffffffffffffffffffffffffffffffffffffff16611ffe611574565b73ffffffffffffffffffffffffffffffffffffffff1614612054576040517f08c379a000000000000000000000000000000000000000000000000000000000815260040161204b90613d1d565b60405180910390fd5b600073ffffffffffffffffffffffffffffffffffffffff168173ffffffffffffffffffffffffffffffffffffffff1614156120c4576040517f08c379a00000000000000000000000000000000000000000000000000000000081526004016120bb9061494a565b60405180910390fd5b6120cd81612619565b50565b60007f80ac58cd000000000000000000000000000000000000000000000000000000007bffffffffffffffffffffffffffffffffffffffffffffffffffffffff1916827bffffffffffffffffffffffffffffffffffffffffffffffffffffffff1916148061219b57507f5b5e139f000000000000000000000000000000000000000000000000000000007bffffffffffffffffffffffffffffffffffffffffffffffffffffffff1916827bffffffffffffffffffffffffffffffffffffffffffffffffffffffff1916145b806121ab57506121aa82612ab9565b5b9050919050565b600033905090565b60008073ffffffffffffffffffffffffffffffffffffffff166002600084815260200190815260200160002060009054906101000a900473ffffffffffffffffffffffffffffffffffffffff1673ffffffffffffffffffffffffffffffffffffffff1614159050919050565b816004600083815260200190815260200160002060006101000a81548173ffffffffffffffffffffffffffffffffffffffff021916908373ffffffffffffffffffffffffffffffffffffffff160217905550808273ffffffffffffffffffffffffffffffffffffffff16612299836112fc565b73ffffffffffffffffffffffffffffffffffffffff167f8c5be1e5ebec7d5bd14f71427d1e84f3dd0314c0f7b2291e5b200ac8c7c3b92560405160405180910390a45050565b60006122ea826121ba565b612329576040517f08c379a0000000000000000000000000000000000000000000000000000000008152600401612320906149dc565b60405180910390fd5b6000612334836112fc565b90508073ffffffffffffffffffffffffffffffffffffffff168473ffffffffffffffffffffffffffffffffffffffff1614806123a357508373ffffffffffffffffffffffffffffffffffffffff1661238b84610b6b565b73ffffffffffffffffffffffffffffffffffffffff16145b806123b457506123b38185611e0e565b5b91505092915050565b8273ffffffffffffffffffffffffffffffffffffffff166123dd826112fc565b73ffffffffffffffffffffffffffffffffffffffff1614612433576040517f08c379a000000000000000000000000000000000000000000000000000000000815260040161242a90614a6e565b60405180910390fd5b600073ffffffffffffffffffffffffffffffffffffffff168273ffffffffffffffffffffffffffffffffffffffff1614156124a3576040517f08c379a000000000000000000000000000000000000000000000000000000000815260040161249a90614b00565b60405180910390fd5b6124ae838383612b23565b6124b9600082612226565b6001600360008573ffffffffffffffffffffffffffffffffffffffff1673ffffffffffffffffffffffffffffffffffffffff16815260200190815260200160002060008282546125099190614b20565b925050819055506001600360008473ffffffffffffffffffffffffffffffffffffffff1673ffffffffffffffffffffffffffffffffffffffff16815260200190815260200160002060008282546125609190614485565b92505081905550816002600083815260200190815260200160002060006101000a81548173ffffffffffffffffffffffffffffffffffffffff021916908373ffffffffffffffffffffffffffffffffffffffff160217905550808273ffffffffffffffffffffffffffffffffffffffff168473ffffffffffffffffffffffffffffffffffffffff167fddf252ad1be2c89b69c2b068fc378daa952ba7f163c4a11628f55a4df523b3ef60405160405180910390a4505050565b6000600a60009054906101000a900473ffffffffffffffffffffffffffffffffffffffff16905081600a60006101000a81548173ffffffffffffffffffffffffffffffffffffffff021916908373ffffffffffffffffffffffffffffffffffffffff1602179055508173ffffffffffffffffffffffffffffffffffffffff168173ffffffffffffffffffffffffffffffffffffffff167f8be0079c531659141344cd1fd0a4f28419497f9722a3daafe3b4186f6b6457e060405160405180910390a35050565b6126f9828260405180602001604052806000815250612c37565b5050565b8173ffffffffffffffffffffffffffffffffffffffff168373ffffffffffffffffffffffffffffffffffffffff16141561276c576040517f08c379a000000000000000000000000000000000000000000000000000000000815260040161276390614ba0565b60405180910390fd5b80600560008573ffffffffffffffffffffffffffffffffffffffff1673ffffffffffffffffffffffffffffffffffffffff16815260200190815260200160002060008473ffffffffffffffffffffffffffffffffffffffff1673ffffffffffffffffffffffffffffffffffffffff16815260200190815260200160002060006101000a81548160ff0219169083151502179055508173ffffffffffffffffffffffffffffffffffffffff168373ffffffffffffffffffffffffffffffffffffffff167f17307eab39ab6107e8899845ad3d59bd9653f200f220920489ca2b5937696c318360405161285d919061351e565b60405180910390a3505050565b6128758484846123bd565b61288184848484612c92565b6128c0576040517f08c379a00000000000000000000000000000000000000000000000000000000081526004016128b790614c32565b60405180910390fd5b50505050565b6060600b80546128d590613d6c565b80601f016020809104026020016040519081016040528092919081815260200182805461290190613d6c565b801561294e5780601f106129235761010080835404028352916020019161294e565b820191906000526020600020905b81548152906001019060200180831161293157829003601f168201915b5050505050905090565b606060008214156129a0576040518060400160405280600181526020017f30000000000000000000000000000000000000000000000000000000000000008152509050612ab4565b600082905060005b600082146129d25780806129bb906140d6565b915050600a826129cb9190614714565b91506129a8565b60008167ffffffffffffffff8111156129ee576129ed61390c565b5b6040519080825280601f01601f191660200182016040528015612a205781602001600182028036833780820191505090505b5090505b60008514612aad57600182612a399190614b20565b9150600a85612a489190614c52565b6030612a549190614485565b60f81b818381518110612a6a57612a69614078565b5b60200101907effffffffffffffffffffffffffffffffffffffffffffffffffffffffffffff1916908160001a905350600a85612aa69190614714565b9450612a24565b8093505050505b919050565b60007f01ffc9a7000000000000000000000000000000000000000000000000000000007bffffffffffffffffffffffffffffffffffffffffffffffffffffffff1916827bffffffffffffffffffffffffffffffffffffffffffffffffffffffff1916149050919050565b612b2e838383612e1a565b600073ffffffffffffffffffffffffffffffffffffffff168373ffffffffffffffffffffffffffffffffffffffff161415612b7157612b6c81612e1f565b612bb0565b8173ffffffffffffffffffffffffffffffffffffffff168373ffffffffffffffffffffffffffffffffffffffff1614612baf57612bae8382612e68565b5b5b600073ffffffffffffffffffffffffffffffffffffffff168273ffffffffffffffffffffffffffffffffffffffff161415612bf357612bee81612fd5565b612c32565b8273ffffffffffffffffffffffffffffffffffffffff168273ffffffffffffffffffffffffffffffffffffffff1614612c3157612c3082826130a6565b5b5b505050565b612c418383613125565b612c4e6000848484612c92565b612c8d576040517f08c379a0000000000000000000000000000000000000000000000000000000008152600401612c8490614c32565b60405180910390fd5b505050565b6000612cb38473ffffffffffffffffffffffffffffffffffffffff166132f3565b15612e0d578373ffffffffffffffffffffffffffffffffffffffff1663150b7a02612cdc6121b2565b8786866040518563ffffffff1660e01b8152600401612cfe9493929190614cd8565b6020604051808303816000875af1925050508015612d3a57506040513d601f19601f82011682018060405250810190612d379190614d39565b60015b612dbd573d8060008114612d6a576040519150601f19603f3d011682016040523d82523d6000602084013e612d6f565b606091505b50600081511415612db5576040517f08c379a0000000000000000000000000000000000000000000000000000000008152600401612dac90614c32565b60405180910390fd5b805181602001fd5b63150b7a0260e01b7bffffffffffffffffffffffffffffffffffffffffffffffffffffffff1916817bffffffffffffffffffffffffffffffffffffffffffffffffffffffff191614915050612e12565b600190505b949350505050565b505050565b6008805490506009600083815260200190815260200160002081905550600881908060018154018082558091505060019003906000526020600020016000909190919091505550565b60006001612e75846113ae565b612e7f9190614b20565b9050600060076000848152602001908152602001600020549050818114612f64576000600660008673ffffffffffffffffffffffffffffffffffffffff1673ffffffffffffffffffffffffffffffffffffffff168152602001908152602001600020600084815260200190815260200160002054905080600660008773ffffffffffffffffffffffffffffffffffffffff1673ffffffffffffffffffffffffffffffffffffffff168152602001908152602001600020600084815260200190815260200160002081905550816007600083815260200190815260200160002081905550505b6007600084815260200190815260200160002060009055600660008573ffffffffffffffffffffffffffffffffffffffff1673ffffffffffffffffffffffffffffffffffffffff16815260200190815260200160002060008381526020019081526020016000206000905550505050565b60006001600880549050612fe99190614b20565b905060006009600084815260200190815260200160002054905060006008838154811061301957613018614078565b5b90600052602060002001549050806008838154811061303b5761303a614078565b5b90600052602060002001819055508160096000838152602001908152602001600020819055506009600085815260200190815260200160002060009055600880548061308a57613089614d66565b5b6001900381819060005260206000200160009055905550505050565b60006130b1836113ae565b905081600660008573ffffffffffffffffffffffffffffffffffffffff1673ffffffffffffffffffffffffffffffffffffffff168152602001908152602001600020600083815260200190815260200160002081905550806007600084815260200190815260200160002081905550505050565b600073ffffffffffffffffffffffffffffffffffffffff168273ffffffffffffffffffffffffffffffffffffffff161415613195576040517f08c379a000000000000000000000000000000000000000000000000000000000815260040161318c90614de1565b60405180910390fd5b61319e816121ba565b156131de576040517f08c379a00000000000000000000000000000000000000000000000000000000081526004016131d590614e4d565b60405180910390fd5b6131ea60008383612b23565b6001600360008473ffffffffffffffffffffffffffffffffffffffff1673ffffffffffffffffffffffffffffffffffffffff168152602001908152602001600020600082825461323a9190614485565b92505081905550816002600083815260200190815260200160002060006101000a81548173ffffffffffffffffffffffffffffffffffffffff021916908373ffffffffffffffffffffffffffffffffffffffff160217905550808273ffffffffffffffffffffffffffffffffffffffff16600073ffffffffffffffffffffffffffffffffffffffff167fddf252ad1be2c89b69c2b068fc378daa952ba7f163c4a11628f55a4df523b3ef60405160405180910390a45050565b600080823b905060008111915050919050565b82805461331290613d6c565b90600052602060002090601f016020900481019282613334576000855561337b565b82601f1061334d57805160ff191683800117855561337b565b8280016001018555821561337b579182015b8281111561337a57825182559160200191906001019061335f565b5b509050613388919061344d565b5090565b50805460008255906000526020600020908101906133aa919061344d565b50565b82805482825590600052602060002090810192821561343c579160200282015b8281111561343b57823573ffffffffffffffffffffffffffffffffffffffff168260006101000a81548173ffffffffffffffffffffffffffffffffffffffff021916908373ffffffffffffffffffffffffffffffffffffffff160217905550916020019190600101906133cd565b5b509050613449919061344d565b5090565b5b8082111561346657600081600090555060010161344e565b5090565b6000604051905090565b600080fd5b600080fd5b60007fffffffff0000000000000000000000000000000000000000000000000000000082169050919050565b6134b38161347e565b81146134be57600080fd5b50565b6000813590506134d0816134aa565b92915050565b6000602082840312156134ec576134eb613474565b5b60006134fa848285016134c1565b91505092915050565b60008115159050919050565b61351881613503565b82525050565b6000602082019050613533600083018461350f565b92915050565b61354281613503565b811461354d57600080fd5b50565b60008135905061355f81613539565b92915050565b60006020828403121561357b5761357a613474565b5b600061358984828501613550565b91505092915050565b600081519050919050565b600082825260208201905092915050565b60005b838110156135cc5780820151818401526020810190506135b1565b838111156135db576000848401525b50505050565b6000601f19601f8301169050919050565b60006135fd82613592565b613607818561359d565b93506136178185602086016135ae565b613620816135e1565b840191505092915050565b6000602082019050818103600083015261364581846135f2565b905092915050565b6000819050919050565b6136608161364d565b811461366b57600080fd5b50565b60008135905061367d81613657565b92915050565b60006020828403121561369957613698613474565b5b60006136a78482850161366e565b91505092915050565b600073ffffffffffffffffffffffffffffffffffffffff82169050919050565b60006136db826136b0565b9050919050565b6136eb816136d0565b82525050565b600060208201905061370660008301846136e2565b92915050565b613715816136d0565b811461372057600080fd5b50565b6000813590506137328161370c565b92915050565b6000806040838503121561374f5761374e613474565b5b600061375d85828601613723565b925050602061376e8582860161366e565b9150509250929050565b6137818161364d565b82525050565b600060208201905061379c6000830184613778565b92915050565b6000602082840312156137b8576137b7613474565b5b60006137c684828501613723565b91505092915050565b6000806000606084860312156137e8576137e7613474565b5b60006137f686828701613723565b935050602061380786828701613723565b92505060406138188682870161366e565b9150509250925092565b600081519050919050565b600082825260208201905092915050565b6000819050602082019050919050565b6138578161364d565b82525050565b6000613869838361384e565b60208301905092915050565b6000602082019050919050565b600061388d82613822565b613897818561382d565b93506138a28361383e565b8060005b838110156138d35781516138ba888261385d565b97506138c583613875565b9250506001810190506138a6565b5085935050505092915050565b600060208201905081810360008301526138fa8184613882565b905092915050565b600080fd5b600080fd5b7f4e487b7100000000000000000000000000000000000000000000000000000000600052604160045260246000fd5b613944826135e1565b810181811067ffffffffffffffff821117156139635761396261390c565b5b80604052505050565b600061397661346a565b9050613982828261393b565b919050565b600067ffffffffffffffff8211156139a2576139a161390c565b5b6139ab826135e1565b9050602081019050919050565b82818337600083830152505050565b60006139da6139d584613987565b61396c565b9050828152602081018484840111156139f6576139f5613907565b5b613a018482856139b8565b509392505050565b600082601f830112613a1e57613a1d613902565b5b8135613a2e8482602086016139c7565b91505092915050565b600060208284031215613a4d57613a4c613474565b5b600082013567ffffffffffffffff811115613a6b57613a6a613479565b5b613a7784828501613a09565b91505092915050565b60008060408385031215613a9757613a96613474565b5b6000613aa585828601613723565b9250506020613ab685828601613550565b9150509250929050565b600067ffffffffffffffff821115613adb57613ada61390c565b5b613ae4826135e1565b9050602081019050919050565b6000613b04613aff84613ac0565b61396c565b905082815260208101848484011115613b2057613b1f613907565b5b613b2b8482856139b8565b509392505050565b600082601f830112613b4857613b47613902565b5b8135613b58848260208601613af1565b91505092915050565b60008060008060808587031215613b7b57613b7a613474565b5b6000613b8987828801613723565b9450506020613b9a87828801613723565b9350506040613bab8782880161366e565b925050606085013567ffffffffffffffff811115613bcc57613bcb613479565b5b613bd887828801613b33565b91505092959194509250565b60008060408385031215613bfb57613bfa613474565b5b6000613c0985828601613723565b9250506020613c1a85828601613723565b9150509250929050565b600080fd5b600080fd5b60008083601f840112613c4457613c43613902565b5b8235905067ffffffffffffffff811115613c6157613c60613c24565b5b602083019150836020820283011115613c7d57613c7c613c29565b5b9250929050565b60008060208385031215613c9b57613c9a613474565b5b600083013567ffffffffffffffff811115613cb957613cb8613479565b5b613cc585828601613c2e565b92509250509250929050565b7f4f776e61626c653a2063616c6c6572206973206e6f7420746865206f776e6572600082015250565b6000613d0760208361359d565b9150613d1282613cd1565b602082019050919050565b60006020820190508181036000830152613d3681613cfa565b9050919050565b7f4e487b7100000000000000000000000000000000000000000000000000000000600052602260045260246000fd5b60006002820490506001821680613d8457607f821691505b60208210811415613d9857613d97613d3d565b5b50919050565b7f4552433732313a20617070726f76656420717565727920666f72206e6f6e657860008201527f697374656e7420746f6b656e0000000000000000000000000000000000000000602082015250565b6000613dfa602c8361359d565b9150613e0582613d9e565b604082019050919050565b60006020820190508181036000830152613e2981613ded565b9050919050565b7f4552433732313a20617070726f76616c20746f2063757272656e74206f776e6560008201527f7200000000000000000000000000000000000000000000000000000000000000602082015250565b6000613e8c60218361359d565b9150613e9782613e30565b604082019050919050565b60006020820190508181036000830152613ebb81613e7f565b9050919050565b7f4552433732313a20617070726f76652063616c6c6572206973206e6f74206f7760008201527f6e6572206e6f7220617070726f76656420666f7220616c6c0000000000000000602082015250565b6000613f1e60388361359d565b9150613f2982613ec2565b604082019050919050565b60006020820190508181036000830152613f4d81613f11565b9050919050565b7f4552433732313a207472616e736665722063616c6c6572206973206e6f74206f60008201527f776e6572206e6f7220617070726f766564000000000000000000000000000000602082015250565b6000613fb060318361359d565b9150613fbb82613f54565b604082019050919050565b60006020820190508181036000830152613fdf81613fa3565b9050919050565b7f455243373231456e756d657261626c653a206f776e657220696e646578206f7560008201527f74206f6620626f756e6473000000000000000000000000000000000000000000602082015250565b6000614042602b8361359d565b915061404d82613fe6565b604082019050919050565b6000602082019050818103600083015261407181614035565b9050919050565b7f4e487b7100000000000000000000000000000000000000000000000000000000600052603260045260246000fd5b7f4e487b7100000000000000000000000000000000000000000000000000000000600052601160045260246000fd5b60006140e18261364d565b91507fffffffffffffffffffffffffffffffffffffffffffffffffffffffffffffffff821415614114576141136140a7565b5b600182019050919050565b600081905092915050565b50565b600061413a60008361411f565b91506141458261412a565b600082019050919050565b600061415b8261412d565b9150819050919050565b7f455243373231456e756d657261626c653a20676c6f62616c20696e646578206f60008201527f7574206f6620626f756e64730000000000000000000000000000000000000000602082015250565b60006141c1602c8361359d565b91506141cc82614165565b604082019050919050565b600060208201905081810360008301526141f0816141b4565b9050919050565b7f4552433732313a206f776e657220717565727920666f72206e6f6e657869737460008201527f656e7420746f6b656e0000000000000000000000000000000000000000000000602082015250565b600061425360298361359d565b915061425e826141f7565b604082019050919050565b6000602082019050818103600083015261428281614246565b9050919050565b7f4552433732313a2062616c616e636520717565727920666f7220746865207a6560008201527f726f206164647265737300000000000000000000000000000000000000000000602082015250565b60006142e5602a8361359d565b91506142f082614289565b604082019050919050565b60006020820190508181036000830152614314816142d8565b9050919050565b7f74686520636f6e74726163742069732070617573656400000000000000000000600082015250565b600061435160168361359d565b915061435c8261431b565b602082019050919050565b6000602082019050818103600083015261438081614344565b9050919050565b7f6e65656420746f206d696e74206174206c656173742031204e46540000000000600082015250565b60006143bd601b8361359d565b91506143c882614387565b602082019050919050565b600060208201905081810360008301526143ec816143b0565b9050919050565b7f6d6178206d696e7420616d6f756e74207065722073657373696f6e206578636560008201527f6564656400000000000000000000000000000000000000000000000000000000602082015250565b600061444f60248361359d565b915061445a826143f3565b604082019050919050565b6000602082019050818103600083015261447e81614442565b9050919050565b60006144908261364d565b915061449b8361364d565b9250827fffffffffffffffffffffffffffffffffffffffffffffffffffffffffffffffff038211156144d0576144cf6140a7565b5b828201905092915050565b7f6d6178204e4654206c696d697420657863656564656400000000000000000000600082015250565b600061451160168361359d565b915061451c826144db565b602082019050919050565b6000602082019050818103600083015261454081614504565b9050919050565b7f75736572206973206e6f742077686974656c6973746564000000000000000000600082015250565b600061457d60178361359d565b915061458882614547565b602082019050919050565b600060208201905081810360008301526145ac81614570565b9050919050565b7f6d6178204e465420706572206164647265737320657863656564656400000000600082015250565b60006145e9601c8361359d565b91506145f4826145b3565b602082019050919050565b60006020820190508181036000830152614618816145dc565b9050919050565b600061462a8261364d565b91506146358361364d565b9250817fffffffffffffffffffffffffffffffffffffffffffffffffffffffffffffffff048311821515161561466e5761466d6140a7565b5b828202905092915050565b7f696e73756666696369656e742066756e64730000000000000000000000000000600082015250565b60006146af60128361359d565b91506146ba82614679565b602082019050919050565b600060208201905081810360008301526146de816146a2565b9050919050565b7f4e487b7100000000000000000000000000000000000000000000000000000000600052601260045260246000fd5b600061471f8261364d565b915061472a8361364d565b92508261473a576147396146e5565b5b828204905092915050565b7f4552433732314d657461646174613a2055524920717565727920666f72206e6f60008201527f6e6578697374656e7420746f6b656e0000000000000000000000000000000000602082015250565b60006147a1602f8361359d565b91506147ac82614745565b604082019050919050565b600060208201905081810360008301526147d081614794565b9050919050565b600081905092915050565b60006147ed82613592565b6147f781856147d7565b93506148078185602086016135ae565b80840191505092915050565b60008190508160005260206000209050919050565b6000815461483581613d6c565b61483f81866147d7565b9450600182166000811461485a576001811461486b5761489e565b60ff1983168652818601935061489e565b61487485614813565b60005b8381101561489657815481890152600182019150602081019050614877565b838801955050505b50505092915050565b60006148b382866147e2565b91506148bf82856147e2565b91506148cb8284614828565b9150819050949350505050565b7f4f776e61626c653a206e6577206f776e657220697320746865207a65726f206160008201527f6464726573730000000000000000000000000000000000000000000000000000602082015250565b600061493460268361359d565b915061493f826148d8565b604082019050919050565b6000602082019050818103600083015261496381614927565b9050919050565b7f4552433732313a206f70657261746f7220717565727920666f72206e6f6e657860008201527f697374656e7420746f6b656e0000000000000000000000000000000000000000602082015250565b60006149c6602c8361359d565b91506149d18261496a565b604082019050919050565b600060208201905081810360008301526149f5816149b9565b9050919050565b7f4552433732313a207472616e73666572206f6620746f6b656e2074686174206960008201527f73206e6f74206f776e0000000000000000000000000000000000000000000000602082015250565b6000614a5860298361359d565b9150614a63826149fc565b604082019050919050565b60006020820190508181036000830152614a8781614a4b565b9050919050565b7f4552433732313a207472616e7366657220746f20746865207a65726f2061646460008201527f7265737300000000000000000000000000000000000000000000000000000000602082015250565b6000614aea60248361359d565b9150614af582614a8e565b604082019050919050565b60006020820190508181036000830152614b1981614add565b9050919050565b6000614b2b8261364d565b9150614b368361364d565b925082821015614b4957614b486140a7565b5b828203905092915050565b7f4552433732313a20617070726f766520746f2063616c6c657200000000000000600082015250565b6000614b8a60198361359d565b9150614b9582614b54565b602082019050919050565b60006020820190508181036000830152614bb981614b7d565b9050919050565b7f4552433732313a207472616e7366657220746f206e6f6e20455243373231526560008201527f63656976657220696d706c656d656e7465720000000000000000000000000000602082015250565b6000614c1c60328361359d565b9150614c2782614bc0565b604082019050919050565b60006020820190508181036000830152614c4b81614c0f565b9050919050565b6000614c5d8261364d565b9150614c688361364d565b925082614c7857614c776146e5565b5b828206905092915050565b600081519050919050565b600082825260208201905092915050565b6000614caa82614c83565b614cb48185614c8e565b9350614cc48185602086016135ae565b614ccd816135e1565b840191505092915050565b6000608082019050614ced60008301876136e2565b614cfa60208301866136e2565b614d076040830185613778565b8181036060830152614d198184614c9f565b905095945050505050565b600081519050614d33816134aa565b92915050565b600060208284031215614d4f57614d4e613474565b5b6000614d5d84828501614d24565b91505092915050565b7f4e487b7100000000000000000000000000000000000000000000000000000000600052603160045260246000fd5b7f4552433732313a206d696e7420746f20746865207a65726f2061646472657373600082015250565b6000614dcb60208361359d565b9150614dd682614d95565b602082019050919050565b60006020820190508181036000830152614dfa81614dbe565b9050919050565b7f4552433732313a20746f6b656e20616c7265616479206d696e74656400000000600082015250565b6000614e37601c8361359d565b9150614e4282614e01565b602082019050919050565b60006020820190508181036000830152614e6681614e2a565b905091905056fea26469706673582212203b753d3ca57534bc454003d3a110d7a37212e79f4c4fa4c95dcaffbf99a4794d64736f6c634300080b0033",
  "immutableReferences": {},
  "source": "// SPDX-License-Identifier: MIT\npragma solidity ^0.8.11;\n\nimport \"@openzeppelin/contracts/token/ERC721/extensions/ERC721Enumerable.sol\";\nimport \"@openzeppelin/contracts/access/Ownable.sol\";\n\ncontract RedAttackNFT is ERC721Enumerable, Ownable {\n  using Strings for uint256;\n\n  string baseURI;\n  string baseExtension = \".json\";\n  string notRevealedUri;\n  uint256 public cost = 0.075 ether;\n  uint256 public maxSupply = 7500;\n  uint256 public maxMintAmount = 3;\n  uint256 public nftPerAddressLimit = 3;\n  bool public paused = false;\n  bool public revealed = false;\n  bool public onlyWhitelisted = true;\n  address payable commissions = payable(0xde3B22caAaD25e65C839c2A3d852d665669EdD5c);\n  address[] public whitelistedAddresses;\n  mapping(address => uint256) public addressMintedBalance;\n\n  constructor(\n    string memory _name,\n    string memory _symbol,\n    string memory _initBaseURI,\n    string memory _initNotRevealedUri\n  ) ERC721(_name, _symbol) {\n    setBaseURI(_initBaseURI);\n    setNotRevealedURI(_initNotRevealedUri);\n  }\n\n  // internal\n  function _baseURI() internal view virtual override returns (string memory) {\n    return baseURI;\n  }\n\n  // public\n  function mint(uint256 _mintAmount) public payable {\n    require(!paused, \"the contract is paused\");\n    uint256 supply = totalSupply();\n    require(_mintAmount > 0, \"need to mint at least 1 NFT\");\n    require(_mintAmount <= maxMintAmount, \"max mint amount per session exceeded\");\n    require(supply + _mintAmount <= maxSupply, \"max NFT limit exceeded\");\n\n    if (msg.sender != owner()) {\n        if(onlyWhitelisted == true) {\n            require(isWhitelisted(msg.sender), \"user is not whitelisted\");\n            uint256 ownerMintedCount = addressMintedBalance[msg.sender];\n            require(ownerMintedCount + _mintAmount <= nftPerAddressLimit, \"max NFT per address exceeded\");\n        }\n        require(msg.value >= cost * _mintAmount, \"insufficient funds\");\n    }\n\n    for (uint256 i = 1; i <= _mintAmount; i++) {\n      addressMintedBalance[msg.sender]++;\n      _safeMint(msg.sender, supply + i);\n    }\n   \n    (bool success, ) = payable(commissions).call{value: msg.value * 7 / 100}(\"\");\n    require(success);\n  }\n \n  function isWhitelisted(address _user) public view returns (bool) {\n    for (uint i = 0; i < whitelistedAddresses.length; i++) {\n      if (whitelistedAddresses[i] == _user) {\n          return true;\n      }\n    }\n    return false;\n  }\n\n  function walletOfOwner(address _owner)\n    public\n    view\n    returns (uint256[] memory)\n  {\n    uint256 ownerTokenCount = balanceOf(_owner);\n    uint256[] memory tokenIds = new uint256[](ownerTokenCount);\n    for (uint256 i; i < ownerTokenCount; i++) {\n      tokenIds[i] = tokenOfOwnerByIndex(_owner, i);\n    }\n    return tokenIds;\n  }\n\n  function tokenURI(uint256 tokenId)\n    public\n    view\n    virtual\n    override\n    returns (string memory)\n  {\n    require(\n      _exists(tokenId),\n      \"ERC721Metadata: URI query for nonexistent token\"\n    );\n   \n    if(revealed == false) {\n        return notRevealedUri;\n    }\n\n    string memory currentBaseURI = _baseURI();\n    return bytes(currentBaseURI).length > 0\n        ? string(abi.encodePacked(currentBaseURI, tokenId.toString(), baseExtension))\n        : \"\";\n  }\n\n  //only owner\n  function reveal() public onlyOwner() {\n      revealed = true;\n  }\n \n  function setNftPerAddressLimit(uint256 _limit) public onlyOwner() {\n    nftPerAddressLimit = _limit;\n  }\n \n  function setCost(uint256 _newCost) public onlyOwner() {\n    cost = _newCost;\n  }\n\n  function setmaxMintAmount(uint256 _newmaxMintAmount) public onlyOwner() {\n    maxMintAmount = _newmaxMintAmount;\n  }\n\n  function setBaseURI(string memory _newBaseURI) public onlyOwner {\n    baseURI = _newBaseURI;\n  }\n\n  function setBaseExtension(string memory _newBaseExtension) public onlyOwner {\n    baseExtension = _newBaseExtension;\n  }\n \n  function setNotRevealedURI(string memory _notRevealedURI) public onlyOwner {\n    notRevealedUri = _notRevealedURI;\n  }\n\n  function pause(bool _state) public onlyOwner {\n    paused = _state;\n  }\n \n  function setOnlyWhitelisted(bool _state) public onlyOwner {\n    onlyWhitelisted = _state;\n  }\n \n  function whitelistUsers(address[] calldata _users) public onlyOwner {\n    delete whitelistedAddresses;\n    whitelistedAddresses = _users;\n  }\n \n  function withdraw() public payable onlyOwner {\n    (bool success, ) = payable(msg.sender).call{value: address(this).balance}(\"\");\n    require(success);\n  }\n}",
  "sourcePath": "/home/mike/work/redattack/contracts/RedAttackNFT.sol",
  "compiler": {
    "name": "solc",
    "version": "0.8.11+commit.d7f03943.Emscripten.clang"
  },
  "schemaVersion": "3.4.4",
  "updatedAt": "2022-01-26T10:54:33.172Z",
  "devdoc": {
    "kind": "dev",
    "methods": {
      "approve(address,uint256)": {
        "details": "See {IERC721-approve}."
      },
      "balanceOf(address)": {
        "details": "See {IERC721-balanceOf}."
      },
      "getApproved(uint256)": {
        "details": "See {IERC721-getApproved}."
      },
      "isApprovedForAll(address,address)": {
        "details": "See {IERC721-isApprovedForAll}."
      },
      "name()": {
        "details": "See {IERC721Metadata-name}."
      },
      "owner()": {
        "details": "Returns the address of the current owner."
      },
      "ownerOf(uint256)": {
        "details": "See {IERC721-ownerOf}."
      },
      "renounceOwnership()": {
        "details": "Leaves the contract without owner. It will not be possible to call `onlyOwner` functions anymore. Can only be called by the current owner. NOTE: Renouncing ownership will leave the contract without an owner, thereby removing any functionality that is only available to the owner."
      },
      "safeTransferFrom(address,address,uint256)": {
        "details": "See {IERC721-safeTransferFrom}."
      },
      "safeTransferFrom(address,address,uint256,bytes)": {
        "details": "See {IERC721-safeTransferFrom}."
      },
      "setApprovalForAll(address,bool)": {
        "details": "See {IERC721-setApprovalForAll}."
      },
      "supportsInterface(bytes4)": {
        "details": "See {IERC165-supportsInterface}."
      },
      "symbol()": {
        "details": "See {IERC721Metadata-symbol}."
      },
      "tokenByIndex(uint256)": {
        "details": "See {IERC721Enumerable-tokenByIndex}."
      },
      "tokenOfOwnerByIndex(address,uint256)": {
        "details": "See {IERC721Enumerable-tokenOfOwnerByIndex}."
      },
      "tokenURI(uint256)": {
        "details": "See {IERC721Metadata-tokenURI}."
      },
      "totalSupply()": {
        "details": "See {IERC721Enumerable-totalSupply}."
      },
      "transferFrom(address,address,uint256)": {
        "details": "See {IERC721-transferFrom}."
      },
      "transferOwnership(address)": {
        "details": "Transfers ownership of the contract to a new account (`newOwner`). Can only be called by the current owner."
      }
    },
    "version": 1
  },
  "userdoc": {
    "kind": "user",
    "methods": {},
    "version": 1
  }
}