{
  "contractName": "RedAttackMarketplace",
  "abi": [
    {
      "inputs": [
        {
          "internalType": "address",
          "name": "_RDK",
          "type": "address"
        }
      ],
      "stateMutability": "nonpayable",
      "type": "constructor"
    },
    {
      "anonymous": false,
      "inputs": [
        {
          "indexed": true,
          "internalType": "address",
          "name": "account",
          "type": "address"
        },
        {
          "indexed": true,
          "internalType": "address",
          "name": "operator",
          "type": "address"
        },
        {
          "indexed": false,
          "internalType": "bool",
          "name": "approved",
          "type": "bool"
        }
      ],
      "name": "ApprovalForAll",
      "type": "event"
    },
    {
      "anonymous": false,
      "inputs": [
        {
          "indexed": false,
          "internalType": "uint256",
          "name": "itemId",
          "type": "uint256"
        },
        {
          "indexed": false,
          "internalType": "string",
          "name": "name",
          "type": "string"
        },
        {
          "indexed": false,
          "internalType": "string",
          "name": "imageUrl",
          "type": "string"
        },
        {
          "indexed": false,
          "internalType": "uint256",
          "name": "price",
          "type": "uint256"
        },
        {
          "indexed": false,
          "internalType": "uint256",
          "name": "maxSupply",
          "type": "uint256"
        },
        {
          "indexed": false,
          "internalType": "enum ItemType",
          "name": "itemType",
          "type": "uint8"
        },
        {
          "indexed": false,
          "internalType": "bool",
          "name": "startSale",
          "type": "bool"
        }
      ],
      "name": "ItemAdded",
      "type": "event"
    },
    {
      "anonymous": false,
      "inputs": [
        {
          "indexed": true,
          "internalType": "address",
          "name": "previousOwner",
          "type": "address"
        },
        {
          "indexed": true,
          "internalType": "address",
          "name": "newOwner",
          "type": "address"
        }
      ],
      "name": "OwnershipTransferred",
      "type": "event"
    },
    {
      "anonymous": false,
      "inputs": [
        {
          "indexed": true,
          "internalType": "address",
          "name": "operator",
          "type": "address"
        },
        {
          "indexed": true,
          "internalType": "address",
          "name": "from",
          "type": "address"
        },
        {
          "indexed": true,
          "internalType": "address",
          "name": "to",
          "type": "address"
        },
        {
          "indexed": false,
          "internalType": "uint256[]",
          "name": "ids",
          "type": "uint256[]"
        },
        {
          "indexed": false,
          "internalType": "uint256[]",
          "name": "values",
          "type": "uint256[]"
        }
      ],
      "name": "TransferBatch",
      "type": "event"
    },
    {
      "anonymous": false,
      "inputs": [
        {
          "indexed": true,
          "internalType": "address",
          "name": "operator",
          "type": "address"
        },
        {
          "indexed": true,
          "internalType": "address",
          "name": "from",
          "type": "address"
        },
        {
          "indexed": true,
          "internalType": "address",
          "name": "to",
          "type": "address"
        },
        {
          "indexed": false,
          "internalType": "uint256",
          "name": "id",
          "type": "uint256"
        },
        {
          "indexed": false,
          "internalType": "uint256",
          "name": "value",
          "type": "uint256"
        }
      ],
      "name": "TransferSingle",
      "type": "event"
    },
    {
      "anonymous": false,
      "inputs": [
        {
          "indexed": false,
          "internalType": "string",
          "name": "value",
          "type": "string"
        },
        {
          "indexed": true,
          "internalType": "uint256",
          "name": "id",
          "type": "uint256"
        }
      ],
      "name": "URI",
      "type": "event"
    },
    {
      "inputs": [],
      "name": "RDK",
      "outputs": [
        {
          "internalType": "address",
          "name": "",
          "type": "address"
        }
      ],
      "stateMutability": "view",
      "type": "function"
    },
    {
      "inputs": [
        {
          "internalType": "address",
          "name": "account",
          "type": "address"
        },
        {
          "internalType": "uint256",
          "name": "id",
          "type": "uint256"
        }
      ],
      "name": "balanceOf",
      "outputs": [
        {
          "internalType": "uint256",
          "name": "",
          "type": "uint256"
        }
      ],
      "stateMutability": "view",
      "type": "function"
    },
    {
      "inputs": [
        {
          "internalType": "address[]",
          "name": "accounts",
          "type": "address[]"
        },
        {
          "internalType": "uint256[]",
          "name": "ids",
          "type": "uint256[]"
        }
      ],
      "name": "balanceOfBatch",
      "outputs": [
        {
          "internalType": "uint256[]",
          "name": "",
          "type": "uint256[]"
        }
      ],
      "stateMutability": "view",
      "type": "function"
    },
    {
      "inputs": [
        {
          "internalType": "address",
          "name": "account",
          "type": "address"
        },
        {
          "internalType": "address",
          "name": "operator",
          "type": "address"
        }
      ],
      "name": "isApprovedForAll",
      "outputs": [
        {
          "internalType": "bool",
          "name": "",
          "type": "bool"
        }
      ],
      "stateMutability": "view",
      "type": "function"
    },
    {
      "inputs": [
        {
          "internalType": "uint256",
          "name": "",
          "type": "uint256"
        }
      ],
      "name": "items",
      "outputs": [
        {
          "internalType": "uint256",
          "name": "price",
          "type": "uint256"
        },
        {
          "internalType": "uint256",
          "name": "maxSupply",
          "type": "uint256"
        },
        {
          "internalType": "uint256",
          "name": "mintedSupply",
          "type": "uint256"
        },
        {
          "internalType": "enum ItemType",
          "name": "itemType",
          "type": "uint8"
        },
        {
          "internalType": "string",
          "name": "name",
          "type": "string"
        },
        {
          "internalType": "string",
          "name": "imageUrl",
          "type": "string"
        }
      ],
      "stateMutability": "view",
      "type": "function"
    },
    {
      "inputs": [],
      "name": "owner",
      "outputs": [
        {
          "internalType": "address",
          "name": "",
          "type": "address"
        }
      ],
      "stateMutability": "view",
      "type": "function"
    },
    {
      "inputs": [],
      "name": "renounceOwnership",
      "outputs": [],
      "stateMutability": "nonpayable",
      "type": "function"
    },
    {
      "inputs": [
        {
          "internalType": "address",
          "name": "from",
          "type": "address"
        },
        {
          "internalType": "address",
          "name": "to",
          "type": "address"
        },
        {
          "internalType": "uint256[]",
          "name": "ids",
          "type": "uint256[]"
        },
        {
          "internalType": "uint256[]",
          "name": "amounts",
          "type": "uint256[]"
        },
        {
          "internalType": "bytes",
          "name": "data",
          "type": "bytes"
        }
      ],
      "name": "safeBatchTransferFrom",
      "outputs": [],
      "stateMutability": "nonpayable",
      "type": "function"
    },
    {
      "inputs": [
        {
          "internalType": "address",
          "name": "from",
          "type": "address"
        },
        {
          "internalType": "address",
          "name": "to",
          "type": "address"
        },
        {
          "internalType": "uint256",
          "name": "id",
          "type": "uint256"
        },
        {
          "internalType": "uint256",
          "name": "amount",
          "type": "uint256"
        },
        {
          "internalType": "bytes",
          "name": "data",
          "type": "bytes"
        }
      ],
      "name": "safeTransferFrom",
      "outputs": [],
      "stateMutability": "nonpayable",
      "type": "function"
    },
    {
      "inputs": [
        {
          "internalType": "address",
          "name": "operator",
          "type": "address"
        },
        {
          "internalType": "bool",
          "name": "approved",
          "type": "bool"
        }
      ],
      "name": "setApprovalForAll",
      "outputs": [],
      "stateMutability": "nonpayable",
      "type": "function"
    },
    {
      "inputs": [
        {
          "internalType": "bytes4",
          "name": "interfaceId",
          "type": "bytes4"
        }
      ],
      "name": "supportsInterface",
      "outputs": [
        {
          "internalType": "bool",
          "name": "",
          "type": "bool"
        }
      ],
      "stateMutability": "view",
      "type": "function"
    },
    {
      "inputs": [],
      "name": "totalItems",
      "outputs": [
        {
          "internalType": "uint256",
          "name": "",
          "type": "uint256"
        }
      ],
      "stateMutability": "view",
      "type": "function"
    },
    {
      "inputs": [
        {
          "internalType": "address",
          "name": "newOwner",
          "type": "address"
        }
      ],
      "name": "transferOwnership",
      "outputs": [],
      "stateMutability": "nonpayable",
      "type": "function"
    },
    {
      "inputs": [
        {
          "internalType": "uint256",
          "name": "itemId",
          "type": "uint256"
        }
      ],
      "name": "saleStarted",
      "outputs": [
        {
          "internalType": "bool",
          "name": "",
          "type": "bool"
        }
      ],
      "stateMutability": "view",
      "type": "function"
    },
    {
      "inputs": [
        {
          "internalType": "uint256",
          "name": "tokenId",
          "type": "uint256"
        }
      ],
      "name": "uri",
      "outputs": [
        {
          "internalType": "string",
          "name": "output",
          "type": "string"
        }
      ],
      "stateMutability": "view",
      "type": "function"
    },
    {
      "inputs": [
        {
          "internalType": "uint256",
          "name": "itemId",
          "type": "uint256"
        },
        {
          "internalType": "uint256",
          "name": "amount",
          "type": "uint256"
        }
      ],
      "name": "buyItem",
      "outputs": [],
      "stateMutability": "payable",
      "type": "function"
    },
    {
      "inputs": [
        {
          "internalType": "uint256",
          "name": "itemId",
          "type": "uint256"
        },
        {
          "internalType": "uint256",
          "name": "amount",
          "type": "uint256"
        }
      ],
      "name": "claimItem",
      "outputs": [],
      "stateMutability": "nonpayable",
      "type": "function"
    },
    {
      "inputs": [
        {
          "internalType": "uint256",
          "name": "itemId",
          "type": "uint256"
        },
        {
          "internalType": "uint256",
          "name": "amount",
          "type": "uint256"
        }
      ],
      "name": "reserveItem",
      "outputs": [],
      "stateMutability": "nonpayable",
      "type": "function"
    },
    {
      "inputs": [
        {
          "internalType": "uint256",
          "name": "itemId",
          "type": "uint256"
        }
      ],
      "name": "flipSaleStarted",
      "outputs": [],
      "stateMutability": "nonpayable",
      "type": "function"
    },
    {
      "inputs": [],
      "name": "startSaleAll",
      "outputs": [],
      "stateMutability": "nonpayable",
      "type": "function"
    },
    {
      "inputs": [
        {
          "internalType": "string",
          "name": "name",
          "type": "string"
        },
        {
          "internalType": "string",
          "name": "imageUrl",
          "type": "string"
        },
        {
          "internalType": "uint256",
          "name": "price",
          "type": "uint256"
        },
        {
          "internalType": "uint256",
          "name": "maxSupply",
          "type": "uint256"
        },
        {
          "internalType": "enum ItemType",
          "name": "itemType",
          "type": "uint8"
        },
        {
          "internalType": "bool",
          "name": "startSale",
          "type": "bool"
        }
      ],
      "name": "addItem",
      "outputs": [],
      "stateMutability": "nonpayable",
      "type": "function"
    },
    {
      "inputs": [
        {
          "internalType": "uint256",
          "name": "itemId",
          "type": "uint256"
        },
        {
          "internalType": "uint256",
          "name": "newPrice",
          "type": "uint256"
        }
      ],
      "name": "changePrice",
      "outputs": [],
      "stateMutability": "nonpayable",
      "type": "function"
    },
    {
      "inputs": [],
      "name": "withdraw",
      "outputs": [],
      "stateMutability": "nonpayable",
      "type": "function"
    }
  ],
  "bytecode": "0x60a060405273704c043ceb93bd6cbe570c6a2708c3e1c0310587600460006101000a81548173ffffffffffffffffffffffffffffffffffffffff021916908373ffffffffffffffffffffffffffffffffffffffff1602179055503480156200006657600080fd5b50604051620053a3380380620053a383398181016040528101906200008c919062000333565b6040518060400160405280600881526020017f6f76657272696465000000000000000000000000000000000000000000000000815250620000d3816200012f60201b60201c565b50620000f4620000e86200014b60201b60201c565b6200015360201b60201c565b8073ffffffffffffffffffffffffffffffffffffffff1660808173ffffffffffffffffffffffffffffffffffffffff168152505050620003ca565b80600290805190602001906200014792919062000219565b5050565b600033905090565b6000600360009054906101000a900473ffffffffffffffffffffffffffffffffffffffff16905081600360006101000a81548173ffffffffffffffffffffffffffffffffffffffff021916908373ffffffffffffffffffffffffffffffffffffffff1602179055508173ffffffffffffffffffffffffffffffffffffffff168173ffffffffffffffffffffffffffffffffffffffff167f8be0079c531659141344cd1fd0a4f28419497f9722a3daafe3b4186f6b6457e060405160405180910390a35050565b828054620002279062000394565b90600052602060002090601f0160209004810192826200024b576000855562000297565b82601f106200026657805160ff191683800117855562000297565b8280016001018555821562000297579182015b828111156200029657825182559160200191906001019062000279565b5b509050620002a69190620002aa565b5090565b5b80821115620002c5576000816000905550600101620002ab565b5090565b600080fd5b600073ffffffffffffffffffffffffffffffffffffffff82169050919050565b6000620002fb82620002ce565b9050919050565b6200030d81620002ee565b81146200031957600080fd5b50565b6000815190506200032d8162000302565b92915050565b6000602082840312156200034c576200034b620002c9565b5b60006200035c848285016200031c565b91505092915050565b7f4e487b7100000000000000000000000000000000000000000000000000000000600052602260045260246000fd5b60006002820490506001821680620003ad57607f821691505b60208210811415620003c457620003c362000365565b5b50919050565b608051614fb6620003ed60003960008181610b4901526114890152614fb66000f3fe60806040526004361061013f5760003560e01c80638da5cb5b116100b6578063e985e9c51161006f578063e985e9c51461044f578063f242432a1461048c578063f2fde38b146104b5578063f34b4786146104de578063f76fab1914610507578063fe7a6c2d1461051e5761013f565b80638da5cb5b1461034b5780639979c00914610376578063a22cb46514610392578063a7dc7f2a146103bb578063b3de019c146103e4578063bfb231d21461040d5761013f565b80632eb2c2d6116101085780632eb2c2d6146102635780633ccfd60b1461028c57806343f91fff146102a35780634e1273f4146102ce578063658899b61461030b578063715018a6146103345761013f565b8062fdd58e1461014457806301ffc9a7146101815780630e89341c146101be5780631dc13bd0146101fb5780632799276d14610238575b600080fd5b34801561015057600080fd5b5061016b60048036038101906101669190612f6e565b610547565b6040516101789190612fbd565b60405180910390f35b34801561018d57600080fd5b506101a860048036038101906101a39190613030565b610610565b6040516101b59190613078565b60405180910390f35b3480156101ca57600080fd5b506101e560048036038101906101e09190613093565b6106f2565b6040516101f29190613159565b60405180910390f35b34801561020757600080fd5b50610222600480360381019061021d9190613093565b6108f2565b60405161022f9190613078565b60405180910390f35b34801561024457600080fd5b5061024d61091c565b60405161025a9190612fbd565b60405180910390f35b34801561026f57600080fd5b5061028a60048036038101906102859190613378565b610922565b005b34801561029857600080fd5b506102a16109c3565b005b3480156102af57600080fd5b506102b8610b47565b6040516102c59190613456565b60405180910390f35b3480156102da57600080fd5b506102f560048036038101906102f09190613534565b610b6b565b604051610302919061366a565b60405180910390f35b34801561031757600080fd5b50610332600480360381019061032d919061368c565b610c84565b005b34801561034057600080fd5b50610349610dec565b005b34801561035757600080fd5b50610360610e74565b60405161036d9190613456565b60405180910390f35b610390600480360381019061038b919061368c565b610e9e565b005b34801561039e57600080fd5b506103b960048036038101906103b491906136f8565b6111af565b005b3480156103c757600080fd5b506103e260048036038101906103dd919061368c565b6111c5565b005b3480156103f057600080fd5b5061040b6004803603810190610406919061368c565b611525565b005b34801561041957600080fd5b50610434600480360381019061042f9190613093565b6115c0565b604051610446969594939291906137af565b60405180910390f35b34801561045b57600080fd5b506104766004803603810190610471919061381e565b611719565b6040516104839190613078565b60405180910390f35b34801561049857600080fd5b506104b360048036038101906104ae919061385e565b6117ad565b005b3480156104c157600080fd5b506104dc60048036038101906104d791906138f5565b61184e565b005b3480156104ea57600080fd5b5061050560048036038101906105009190613093565b611946565b005b34801561051357600080fd5b5061051c611a11565b005b34801561052a57600080fd5b50610545600480360381019061054091906139e8565b611adc565b005b60008073ffffffffffffffffffffffffffffffffffffffff168373ffffffffffffffffffffffffffffffffffffffff1614156105b8576040517f08c379a00000000000000000000000000000000000000000000000000000000081526004016105af90613b1f565b60405180910390fd5b60008083815260200190815260200160002060008473ffffffffffffffffffffffffffffffffffffffff1673ffffffffffffffffffffffffffffffffffffffff16815260200190815260200160002054905092915050565b60007fd9b67a26000000000000000000000000000000000000000000000000000000007bffffffffffffffffffffffffffffffffffffffffffffffffffffffff1916827bffffffffffffffffffffffffffffffffffffffffffffffffffffffff191614806106db57507f0e89341c000000000000000000000000000000000000000000000000000000007bffffffffffffffffffffffffffffffffffffffffffffffffffffffff1916827bffffffffffffffffffffffffffffffffffffffffffffffffffffffff1916145b806106eb57506106ea82611d15565b5b9050919050565b60606000600560008481526020019081526020016000206040518060c00160405290816000820154815260200160018201548152602001600282015481526020016003820160009054906101000a900460ff16600181111561075757610756613738565b5b600181111561076957610768613738565b5b815260200160048201805461077d90613b6e565b80601f01602080910402602001604051908101604052809291908181526020018280546107a990613b6e565b80156107f65780601f106107cb576101008083540402835291602001916107f6565b820191906000526020600020905b8154815290600101906020018083116107d957829003601f168201915b5050505050815260200160058201805461080f90613b6e565b80601f016020809104026020016040519081016040528092919081815260200182805461083b90613b6e565b80156108885780601f1061085d57610100808354040283529160200191610888565b820191906000526020600020905b81548152906001019060200180831161086b57829003601f168201915b505050505081525050905060006108c782608001518360a001516040516020016108b3929190613ed4565b604051602081830303815290604052611d7f565b9050806040516020016108da9190613f91565b60405160208183030381529060405292505050919050565b60006007600083815260200190815260200160002060009054906101000a900460ff169050919050565b60065481565b61092a611f17565b73ffffffffffffffffffffffffffffffffffffffff168573ffffffffffffffffffffffffffffffffffffffff161480610970575061096f8561096a611f17565b611719565b5b6109af576040517f08c379a00000000000000000000000000000000000000000000000000000000081526004016109a690614025565b60405180910390fd5b6109bc8585858585611f1f565b5050505050565b6109cb611f17565b73ffffffffffffffffffffffffffffffffffffffff166109e9610e74565b73ffffffffffffffffffffffffffffffffffffffff1614610a3f576040517f08c379a0000000000000000000000000000000000000000000000000000000008152600401610a3690614091565b60405180910390fd5b600047905060006014601183610a5591906140e0565b610a5f9190614169565b90503373ffffffffffffffffffffffffffffffffffffffff166108fc829081150290604051600060405180830381858888f19350505050610a9f57600080fd5b6000600460009054906101000a900473ffffffffffffffffffffffffffffffffffffffff1673ffffffffffffffffffffffffffffffffffffffff168284610ae6919061419a565b604051610af2906141ff565b60006040518083038185875af1925050503d8060008114610b2f576040519150601f19603f3d011682016040523d82523d6000602084013e610b34565b606091505b5050905080610b4257600080fd5b505050565b7f000000000000000000000000000000000000000000000000000000000000000081565b60608151835114610bb1576040517f08c379a0000000000000000000000000000000000000000000000000000000008152600401610ba890614286565b60405180910390fd5b6000835167ffffffffffffffff811115610bce57610bcd613180565b5b604051908082528060200260200182016040528015610bfc5781602001602082028036833780820191505090505b50905060005b8451811015610c7957610c49858281518110610c2157610c206142a6565b5b6020026020010151858381518110610c3c57610c3b6142a6565b5b6020026020010151610547565b828281518110610c5c57610c5b6142a6565b5b60200260200101818152505080610c72906142d5565b9050610c02565b508091505092915050565b610c8c611f17565b73ffffffffffffffffffffffffffffffffffffffff16610caa610e74565b73ffffffffffffffffffffffffffffffffffffffff1614610d00576040517f08c379a0000000000000000000000000000000000000000000000000000000008152600401610cf790614091565b60405180910390fd5b6006548210610d44576040517f08c379a0000000000000000000000000000000000000000000000000000000008152600401610d3b9061436a565b60405180910390fd5b60006005600084815260200190815260200160002090508060010154828260020154610d70919061438a565b1115610db1576040517f08c379a0000000000000000000000000000000000000000000000000000000008152600401610da89061442c565b60405180910390fd5b81816002016000828254610dc5919061438a565b92505081905550610de733848460405180602001604052806000815250612233565b505050565b610df4611f17565b73ffffffffffffffffffffffffffffffffffffffff16610e12610e74565b73ffffffffffffffffffffffffffffffffffffffff1614610e68576040517f08c379a0000000000000000000000000000000000000000000000000000000008152600401610e5f90614091565b60405180910390fd5b610e7260006123c9565b565b6000600360009054906101000a900473ffffffffffffffffffffffffffffffffffffffff16905090565b816007600082815260200190815260200160002060009054906101000a900460ff16610eff576040517f08c379a0000000000000000000000000000000000000000000000000000000008152600401610ef690614498565b60405180910390fd5b6006548310610f43576040517f08c379a0000000000000000000000000000000000000000000000000000000008152600401610f3a9061436a565b60405180910390fd5b6000600560008581526020019081526020016000206040518060c00160405290816000820154815260200160018201548152602001600282015481526020016003820160009054906101000a900460ff166001811115610fa657610fa5613738565b5b6001811115610fb857610fb7613738565b5b8152602001600482018054610fcc90613b6e565b80601f0160208091040260200160405190810160405280929190818152602001828054610ff890613b6e565b80156110455780601f1061101a57610100808354040283529160200191611045565b820191906000526020600020905b81548152906001019060200180831161102857829003601f168201915b5050505050815260200160058201805461105e90613b6e565b80601f016020809104026020016040519081016040528092919081815260200182805461108a90613b6e565b80156110d75780601f106110ac576101008083540402835291602001916110d7565b820191906000526020600020905b8154815290600101906020018083116110ba57829003601f168201915b5050505050815250509050600060018111156110f6576110f5613738565b5b8160600151600181111561110d5761110c613738565b5b1461114d576040517f08c379a00000000000000000000000000000000000000000000000000000000081526004016111449061452a565b60405180910390fd5b3483826000015161115e91906140e0565b111561119f576040517f08c379a000000000000000000000000000000000000000000000000000000000815260040161119690614596565b60405180910390fd5b6111a9848461248f565b50505050565b6111c16111ba611f17565b83836125ef565b5050565b816007600082815260200190815260200160002060009054906101000a900460ff16611226576040517f08c379a000000000000000000000000000000000000000000000000000000000815260040161121d90614498565b60405180910390fd5b600654831061126a576040517f08c379a00000000000000000000000000000000000000000000000000000000081526004016112619061436a565b60405180910390fd5b6000600560008581526020019081526020016000206040518060c00160405290816000820154815260200160018201548152602001600282015481526020016003820160009054906101000a900460ff1660018111156112cd576112cc613738565b5b60018111156112df576112de613738565b5b81526020016004820180546112f390613b6e565b80601f016020809104026020016040519081016040528092919081815260200182805461131f90613b6e565b801561136c5780601f106113415761010080835404028352916020019161136c565b820191906000526020600020905b81548152906001019060200180831161134f57829003601f168201915b5050505050815260200160058201805461138590613b6e565b80601f01602080910402602001604051908101604052809291908181526020018280546113b190613b6e565b80156113fe5780601f106113d3576101008083540402835291602001916113fe565b820191906000526020600020905b8154815290600101906020018083116113e157829003601f168201915b505050505081525050905060018081111561141c5761141b613738565b5b8160600151600181111561143357611432613738565b5b14611473576040517f08c379a000000000000000000000000000000000000000000000000000000000815260040161146a90614602565b60405180910390fd5b600083826000015161148591906140e0565b90507f000000000000000000000000000000000000000000000000000000000000000073ffffffffffffffffffffffffffffffffffffffff166379cc679033836040518363ffffffff1660e01b81526004016114e2929190614622565b600060405180830381600087803b1580156114fc57600080fd5b505af1158015611510573d6000803e3d6000fd5b5050505061151e858561248f565b5050505050565b61152d611f17565b73ffffffffffffffffffffffffffffffffffffffff1661154b610e74565b73ffffffffffffffffffffffffffffffffffffffff16146115a1576040517f08c379a000000000000000000000000000000000000000000000000000000000815260040161159890614091565b60405180910390fd5b8060056000848152602001908152602001600020600001819055505050565b60056020528060005260406000206000915090508060000154908060010154908060020154908060030160009054906101000a900460ff169080600401805461160890613b6e565b80601f016020809104026020016040519081016040528092919081815260200182805461163490613b6e565b80156116815780601f1061165657610100808354040283529160200191611681565b820191906000526020600020905b81548152906001019060200180831161166457829003601f168201915b50505050509080600501805461169690613b6e565b80601f01602080910402602001604051908101604052809291908181526020018280546116c290613b6e565b801561170f5780601f106116e45761010080835404028352916020019161170f565b820191906000526020600020905b8154815290600101906020018083116116f257829003601f168201915b5050505050905086565b6000600160008473ffffffffffffffffffffffffffffffffffffffff1673ffffffffffffffffffffffffffffffffffffffff16815260200190815260200160002060008373ffffffffffffffffffffffffffffffffffffffff1673ffffffffffffffffffffffffffffffffffffffff16815260200190815260200160002060009054906101000a900460ff16905092915050565b6117b5611f17565b73ffffffffffffffffffffffffffffffffffffffff168573ffffffffffffffffffffffffffffffffffffffff1614806117fb57506117fa856117f5611f17565b611719565b5b61183a576040517f08c379a0000000000000000000000000000000000000000000000000000000008152600401611831906146bd565b60405180910390fd5b611847858585858561275c565b5050505050565b611856611f17565b73ffffffffffffffffffffffffffffffffffffffff16611874610e74565b73ffffffffffffffffffffffffffffffffffffffff16146118ca576040517f08c379a00000000000000000000000000000000000000000000000000000000081526004016118c190614091565b60405180910390fd5b600073ffffffffffffffffffffffffffffffffffffffff168173ffffffffffffffffffffffffffffffffffffffff16141561193a576040517f08c379a00000000000000000000000000000000000000000000000000000000081526004016119319061474f565b60405180910390fd5b611943816123c9565b50565b61194e611f17565b73ffffffffffffffffffffffffffffffffffffffff1661196c610e74565b73ffffffffffffffffffffffffffffffffffffffff16146119c2576040517f08c379a00000000000000000000000000000000000000000000000000000000081526004016119b990614091565b60405180910390fd5b6007600082815260200190815260200160002060009054906101000a900460ff16156007600083815260200190815260200160002060006101000a81548160ff02191690831515021790555050565b611a19611f17565b73ffffffffffffffffffffffffffffffffffffffff16611a37610e74565b73ffffffffffffffffffffffffffffffffffffffff1614611a8d576040517f08c379a0000000000000000000000000000000000000000000000000000000008152600401611a8490614091565b60405180910390fd5b60005b600654811015611ad95760016007600083815260200190815260200160002060006101000a81548160ff0219169083151502179055508080611ad1906142d5565b915050611a90565b50565b611ae4611f17565b73ffffffffffffffffffffffffffffffffffffffff16611b02610e74565b73ffffffffffffffffffffffffffffffffffffffff1614611b58576040517f08c379a0000000000000000000000000000000000000000000000000000000008152600401611b4f90614091565b60405180910390fd5b60008311611b9b576040517f08c379a0000000000000000000000000000000000000000000000000000000008152600401611b92906147bb565b60405180910390fd5b6000600654905060006040518060c0016040528087815260200186815260200160008152602001856001811115611bd557611bd4613738565b5b8152602001898152602001888152509050806005600084815260200190815260200160002060008201518160000155602082015181600101556040820151816002015560608201518160030160006101000a81548160ff02191690836001811115611c4357611c42613738565b5b02179055506080820151816004019080519060200190611c64929190612e23565b5060a0820151816005019080519060200190611c81929190612e23565b5090505060066000815480929190611c98906142d5565b9190505550826007600084815260200190815260200160002060006101000a81548160ff0219169083151502179055507f5866748489dadf643fd37efd955ffb6b1b2a2a86c31f1c726af389e75cbddb1d82898989898989604051611d0397969594939291906147db565b60405180910390a15050505050505050565b60007f01ffc9a7000000000000000000000000000000000000000000000000000000007bffffffffffffffffffffffffffffffffffffffffffffffffffffffff1916827bffffffffffffffffffffffffffffffffffffffffffffffffffffffff1916149050919050565b60606000825190506000811415611da85760405180602001604052806000815250915050611f12565b60006003600283611db9919061438a565b611dc39190614169565b6004611dcf91906140e0565b90506000602082611de0919061438a565b67ffffffffffffffff811115611df957611df8613180565b5b6040519080825280601f01601f191660200182016040528015611e2b5781602001600182028036833780820191505090505b5090506000604051806060016040528060408152602001614f41604091399050600181016020830160005b86811015611ecf5760038101905062ffffff818a015116603f8160121c168401518060081b905060ff603f83600c1c1686015116810190508060081b905060ff603f8360061c1686015116810190508060081b905060ff603f831686015116810190508060e01b90508084526004840193505050611e56565b506003860660018114611ee95760028114611ef957611f04565b613d3d60f01b6002830352611f04565b603d60f81b60018303525b508484525050819450505050505b919050565b600033905090565b8151835114611f63576040517f08c379a0000000000000000000000000000000000000000000000000000000008152600401611f5a906148ca565b60405180910390fd5b600073ffffffffffffffffffffffffffffffffffffffff168473ffffffffffffffffffffffffffffffffffffffff161415611fd3576040517f08c379a0000000000000000000000000000000000000000000000000000000008152600401611fca9061495c565b60405180910390fd5b6000611fdd611f17565b9050611fed8187878787876129de565b60005b845181101561219e57600085828151811061200e5761200d6142a6565b5b60200260200101519050600085838151811061202d5761202c6142a6565b5b60200260200101519050600080600084815260200190815260200160002060008b73ffffffffffffffffffffffffffffffffffffffff1673ffffffffffffffffffffffffffffffffffffffff168152602001908152602001600020549050818110156120ce576040517f08c379a00000000000000000000000000000000000000000000000000000000081526004016120c5906149ee565b60405180910390fd5b81810360008085815260200190815260200160002060008c73ffffffffffffffffffffffffffffffffffffffff1673ffffffffffffffffffffffffffffffffffffffff168152602001908152602001600020819055508160008085815260200190815260200160002060008b73ffffffffffffffffffffffffffffffffffffffff1673ffffffffffffffffffffffffffffffffffffffff1681526020019081526020016000206000828254612183919061438a565b9250508190555050505080612197906142d5565b9050611ff0565b508473ffffffffffffffffffffffffffffffffffffffff168673ffffffffffffffffffffffffffffffffffffffff168273ffffffffffffffffffffffffffffffffffffffff167f4a39dc06d4c0dbc64b70af90fd698a233a518aa5d07e595d983b8c0526c8f7fb8787604051612215929190614a0e565b60405180910390a461222b8187878787876129e6565b505050505050565b600073ffffffffffffffffffffffffffffffffffffffff168473ffffffffffffffffffffffffffffffffffffffff1614156122a3576040517f08c379a000000000000000000000000000000000000000000000000000000000815260040161229a90614ab7565b60405180910390fd5b60006122ad611f17565b90506122ce816000876122bf88612bbe565b6122c888612bbe565b876129de565b8260008086815260200190815260200160002060008773ffffffffffffffffffffffffffffffffffffffff1673ffffffffffffffffffffffffffffffffffffffff168152602001908152602001600020600082825461232d919061438a565b925050819055508473ffffffffffffffffffffffffffffffffffffffff16600073ffffffffffffffffffffffffffffffffffffffff168273ffffffffffffffffffffffffffffffffffffffff167fc3d58168c5ae7397731d063d5bbf3d657854427343f4c083240f7aacaa2d0f6287876040516123ab929190614ad7565b60405180910390a46123c281600087878787612c38565b5050505050565b6000600360009054906101000a900473ffffffffffffffffffffffffffffffffffffffff16905081600360006101000a81548173ffffffffffffffffffffffffffffffffffffffff021916908373ffffffffffffffffffffffffffffffffffffffff1602179055508173ffffffffffffffffffffffffffffffffffffffff168173ffffffffffffffffffffffffffffffffffffffff167f8be0079c531659141344cd1fd0a4f28419497f9722a3daafe3b4186f6b6457e060405160405180910390a35050565b816007600082815260200190815260200160002060009054906101000a900460ff166124f0576040517f08c379a00000000000000000000000000000000000000000000000000000000081526004016124e790614498565b60405180910390fd5b6006548310612534576040517f08c379a000000000000000000000000000000000000000000000000000000000815260040161252b9061436a565b60405180910390fd5b60006005600085815260200190815260200160002090506005600085815260200190815260200160002060010154838260020154612572919061438a565b11156125b3576040517f08c379a00000000000000000000000000000000000000000000000000000000081526004016125aa90614b4c565b60405180910390fd5b828160020160008282546125c7919061438a565b925050819055506125e933858560405180602001604052806000815250612233565b50505050565b8173ffffffffffffffffffffffffffffffffffffffff168373ffffffffffffffffffffffffffffffffffffffff16141561265e576040517f08c379a000000000000000000000000000000000000000000000000000000000815260040161265590614bde565b60405180910390fd5b80600160008573ffffffffffffffffffffffffffffffffffffffff1673ffffffffffffffffffffffffffffffffffffffff16815260200190815260200160002060008473ffffffffffffffffffffffffffffffffffffffff1673ffffffffffffffffffffffffffffffffffffffff16815260200190815260200160002060006101000a81548160ff0219169083151502179055508173ffffffffffffffffffffffffffffffffffffffff168373ffffffffffffffffffffffffffffffffffffffff167f17307eab39ab6107e8899845ad3d59bd9653f200f220920489ca2b5937696c318360405161274f9190613078565b60405180910390a3505050565b600073ffffffffffffffffffffffffffffffffffffffff168473ffffffffffffffffffffffffffffffffffffffff1614156127cc576040517f08c379a00000000000000000000000000000000000000000000000000000000081526004016127c39061495c565b60405180910390fd5b60006127d6611f17565b90506127f68187876127e788612bbe565b6127f088612bbe565b876129de565b600080600086815260200190815260200160002060008873ffffffffffffffffffffffffffffffffffffffff1673ffffffffffffffffffffffffffffffffffffffff1681526020019081526020016000205490508381101561288d576040517f08c379a0000000000000000000000000000000000000000000000000000000008152600401612884906149ee565b60405180910390fd5b83810360008087815260200190815260200160002060008973ffffffffffffffffffffffffffffffffffffffff1673ffffffffffffffffffffffffffffffffffffffff168152602001908152602001600020819055508360008087815260200190815260200160002060008873ffffffffffffffffffffffffffffffffffffffff1673ffffffffffffffffffffffffffffffffffffffff1681526020019081526020016000206000828254612942919061438a565b925050819055508573ffffffffffffffffffffffffffffffffffffffff168773ffffffffffffffffffffffffffffffffffffffff168373ffffffffffffffffffffffffffffffffffffffff167fc3d58168c5ae7397731d063d5bbf3d657854427343f4c083240f7aacaa2d0f6288886040516129bf929190614ad7565b60405180910390a46129d5828888888888612c38565b50505050505050565b505050505050565b612a058473ffffffffffffffffffffffffffffffffffffffff16612e10565b15612bb6578373ffffffffffffffffffffffffffffffffffffffff1663bc197c8187878686866040518663ffffffff1660e01b8152600401612a4b959493929190614c53565b6020604051808303816000875af1925050508015612a8757506040513d601f19601f82011682018060405250810190612a849190614cd0565b60015b612b2d57612a93614d0a565b806308c379a01415612af05750612aa8614d2c565b80612ab35750612af2565b806040517f08c379a0000000000000000000000000000000000000000000000000000000008152600401612ae79190613159565b60405180910390fd5b505b6040517f08c379a0000000000000000000000000000000000000000000000000000000008152600401612b2490614e34565b60405180910390fd5b63bc197c8160e01b7bffffffffffffffffffffffffffffffffffffffffffffffffffffffff1916817bffffffffffffffffffffffffffffffffffffffffffffffffffffffff191614612bb4576040517f08c379a0000000000000000000000000000000000000000000000000000000008152600401612bab90614ec6565b60405180910390fd5b505b505050505050565b60606000600167ffffffffffffffff811115612bdd57612bdc613180565b5b604051908082528060200260200182016040528015612c0b5781602001602082028036833780820191505090505b5090508281600081518110612c2357612c226142a6565b5b60200260200101818152505080915050919050565b612c578473ffffffffffffffffffffffffffffffffffffffff16612e10565b15612e08578373ffffffffffffffffffffffffffffffffffffffff1663f23a6e6187878686866040518663ffffffff1660e01b8152600401612c9d959493929190614ee6565b6020604051808303816000875af1925050508015612cd957506040513d601f19601f82011682018060405250810190612cd69190614cd0565b60015b612d7f57612ce5614d0a565b806308c379a01415612d425750612cfa614d2c565b80612d055750612d44565b806040517f08c379a0000000000000000000000000000000000000000000000000000000008152600401612d399190613159565b60405180910390fd5b505b6040517f08c379a0000000000000000000000000000000000000000000000000000000008152600401612d7690614e34565b60405180910390fd5b63f23a6e6160e01b7bffffffffffffffffffffffffffffffffffffffffffffffffffffffff1916817bffffffffffffffffffffffffffffffffffffffffffffffffffffffff191614612e06576040517f08c379a0000000000000000000000000000000000000000000000000000000008152600401612dfd90614ec6565b60405180910390fd5b505b505050505050565b600080823b905060008111915050919050565b828054612e2f90613b6e565b90600052602060002090601f016020900481019282612e515760008555612e98565b82601f10612e6a57805160ff1916838001178555612e98565b82800160010185558215612e98579182015b82811115612e97578251825591602001919060010190612e7c565b5b509050612ea59190612ea9565b5090565b5b80821115612ec2576000816000905550600101612eaa565b5090565b6000604051905090565b600080fd5b600080fd5b600073ffffffffffffffffffffffffffffffffffffffff82169050919050565b6000612f0582612eda565b9050919050565b612f1581612efa565b8114612f2057600080fd5b50565b600081359050612f3281612f0c565b92915050565b6000819050919050565b612f4b81612f38565b8114612f5657600080fd5b50565b600081359050612f6881612f42565b92915050565b60008060408385031215612f8557612f84612ed0565b5b6000612f9385828601612f23565b9250506020612fa485828601612f59565b9150509250929050565b612fb781612f38565b82525050565b6000602082019050612fd26000830184612fae565b92915050565b60007fffffffff0000000000000000000000000000000000000000000000000000000082169050919050565b61300d81612fd8565b811461301857600080fd5b50565b60008135905061302a81613004565b92915050565b60006020828403121561304657613045612ed0565b5b60006130548482850161301b565b91505092915050565b60008115159050919050565b6130728161305d565b82525050565b600060208201905061308d6000830184613069565b92915050565b6000602082840312156130a9576130a8612ed0565b5b60006130b784828501612f59565b91505092915050565b600081519050919050565b600082825260208201905092915050565b60005b838110156130fa5780820151818401526020810190506130df565b83811115613109576000848401525b50505050565b6000601f19601f8301169050919050565b600061312b826130c0565b61313581856130cb565b93506131458185602086016130dc565b61314e8161310f565b840191505092915050565b600060208201905081810360008301526131738184613120565b905092915050565b600080fd5b7f4e487b7100000000000000000000000000000000000000000000000000000000600052604160045260246000fd5b6131b88261310f565b810181811067ffffffffffffffff821117156131d7576131d6613180565b5b80604052505050565b60006131ea612ec6565b90506131f682826131af565b919050565b600067ffffffffffffffff82111561321657613215613180565b5b602082029050602081019050919050565b600080fd5b600061323f61323a846131fb565b6131e0565b9050808382526020820190506020840283018581111561326257613261613227565b5b835b8181101561328b57806132778882612f59565b845260208401935050602081019050613264565b5050509392505050565b600082601f8301126132aa576132a961317b565b5b81356132ba84826020860161322c565b91505092915050565b600080fd5b600067ffffffffffffffff8211156132e3576132e2613180565b5b6132ec8261310f565b9050602081019050919050565b82818337600083830152505050565b600061331b613316846132c8565b6131e0565b905082815260208101848484011115613337576133366132c3565b5b6133428482856132f9565b509392505050565b600082601f83011261335f5761335e61317b565b5b813561336f848260208601613308565b91505092915050565b600080600080600060a0868803121561339457613393612ed0565b5b60006133a288828901612f23565b95505060206133b388828901612f23565b945050604086013567ffffffffffffffff8111156133d4576133d3612ed5565b5b6133e088828901613295565b935050606086013567ffffffffffffffff81111561340157613400612ed5565b5b61340d88828901613295565b925050608086013567ffffffffffffffff81111561342e5761342d612ed5565b5b61343a8882890161334a565b9150509295509295909350565b61345081612efa565b82525050565b600060208201905061346b6000830184613447565b92915050565b600067ffffffffffffffff82111561348c5761348b613180565b5b602082029050602081019050919050565b60006134b06134ab84613471565b6131e0565b905080838252602082019050602084028301858111156134d3576134d2613227565b5b835b818110156134fc57806134e88882612f23565b8452602084019350506020810190506134d5565b5050509392505050565b600082601f83011261351b5761351a61317b565b5b813561352b84826020860161349d565b91505092915050565b6000806040838503121561354b5761354a612ed0565b5b600083013567ffffffffffffffff81111561356957613568612ed5565b5b61357585828601613506565b925050602083013567ffffffffffffffff81111561359657613595612ed5565b5b6135a285828601613295565b9150509250929050565b600081519050919050565b600082825260208201905092915050565b6000819050602082019050919050565b6135e181612f38565b82525050565b60006135f383836135d8565b60208301905092915050565b6000602082019050919050565b6000613617826135ac565b61362181856135b7565b935061362c836135c8565b8060005b8381101561365d57815161364488826135e7565b975061364f836135ff565b925050600181019050613630565b5085935050505092915050565b60006020820190508181036000830152613684818461360c565b905092915050565b600080604083850312156136a3576136a2612ed0565b5b60006136b185828601612f59565b92505060206136c285828601612f59565b9150509250929050565b6136d58161305d565b81146136e057600080fd5b50565b6000813590506136f2816136cc565b92915050565b6000806040838503121561370f5761370e612ed0565b5b600061371d85828601612f23565b925050602061372e858286016136e3565b9150509250929050565b7f4e487b7100000000000000000000000000000000000000000000000000000000600052602160045260246000fd5b6002811061377857613777613738565b5b50565b600081905061378982613767565b919050565b60006137998261377b565b9050919050565b6137a98161378e565b82525050565b600060c0820190506137c46000830189612fae565b6137d16020830188612fae565b6137de6040830187612fae565b6137eb60608301866137a0565b81810360808301526137fd8185613120565b905081810360a08301526138118184613120565b9050979650505050505050565b6000806040838503121561383557613834612ed0565b5b600061384385828601612f23565b925050602061385485828601612f23565b9150509250929050565b600080600080600060a0868803121561387a57613879612ed0565b5b600061388888828901612f23565b955050602061389988828901612f23565b94505060406138aa88828901612f59565b93505060606138bb88828901612f59565b925050608086013567ffffffffffffffff8111156138dc576138db612ed5565b5b6138e88882890161334a565b9150509295509295909350565b60006020828403121561390b5761390a612ed0565b5b600061391984828501612f23565b91505092915050565b600067ffffffffffffffff82111561393d5761393c613180565b5b6139468261310f565b9050602081019050919050565b600061396661396184613922565b6131e0565b905082815260208101848484011115613982576139816132c3565b5b61398d8482856132f9565b509392505050565b600082601f8301126139aa576139a961317b565b5b81356139ba848260208601613953565b91505092915050565b600281106139d057600080fd5b50565b6000813590506139e2816139c3565b92915050565b60008060008060008060c08789031215613a0557613a04612ed0565b5b600087013567ffffffffffffffff811115613a2357613a22612ed5565b5b613a2f89828a01613995565b965050602087013567ffffffffffffffff811115613a5057613a4f612ed5565b5b613a5c89828a01613995565b9550506040613a6d89828a01612f59565b9450506060613a7e89828a01612f59565b9350506080613a8f89828a016139d3565b92505060a0613aa089828a016136e3565b9150509295509295509295565b7f455243313135353a2062616c616e636520717565727920666f7220746865207a60008201527f65726f2061646472657373000000000000000000000000000000000000000000602082015250565b6000613b09602b836130cb565b9150613b1482613aad565b604082019050919050565b60006020820190508181036000830152613b3881613afc565b9050919050565b7f4e487b7100000000000000000000000000000000000000000000000000000000600052602260045260246000fd5b60006002820490506001821680613b8657607f821691505b60208210811415613b9a57613b99613b3f565b5b50919050565b600081905092915050565b7f7b00000000000000000000000000000000000000000000000000000000000000600082015250565b6000613be1600183613ba0565b9150613bec82613bab565b600182019050919050565b7f226e616d65223a20220000000000000000000000000000000000000000000000600082015250565b6000613c2d600983613ba0565b9150613c3882613bf7565b600982019050919050565b6000613c4e826130c0565b613c588185613ba0565b9350613c688185602086016130dc565b80840191505092915050565b7f222c000000000000000000000000000000000000000000000000000000000000600082015250565b6000613caa600283613ba0565b9150613cb582613c74565b600282019050919050565b7f226465736372697074696f6e223a202254686520466967687420666f72204d6560008201527f65676f736120697320616e204e465420636f6d6d756e697479204d4d4f52504760208201527f2e204a6f696e2074686520636f6d6d756e69747920616e64206c6561726e206d60408201527f6f726520696e206f757220446973636f72642e2068747470733a2f2f6469736360608201527f6f72642e67672f63374e52567676565a742068747470733a2f2f74776974746560808201527f722e636f6d2f416d6565676f734f6666696369616c2068747470733a2f2f616d60a08201527f6565676f732e696f2f222c00000000000000000000000000000000000000000060c082015250565b6000613dda60cb83613ba0565b9150613de582613cc0565b60cb82019050919050565b7f22696d616765223a202200000000000000000000000000000000000000000000600082015250565b6000613e26600a83613ba0565b9150613e3182613df0565b600a82019050919050565b7f2200000000000000000000000000000000000000000000000000000000000000600082015250565b6000613e72600183613ba0565b9150613e7d82613e3c565b600182019050919050565b7f7d00000000000000000000000000000000000000000000000000000000000000600082015250565b6000613ebe600183613ba0565b9150613ec982613e88565b600182019050919050565b6000613edf82613bd4565b9150613eea82613c20565b9150613ef68285613c43565b9150613f0182613c9d565b9150613f0c82613dcd565b9150613f1782613e19565b9150613f238284613c43565b9150613f2e82613e65565b9150613f3982613eb1565b91508190509392505050565b7f646174613a6170706c69636174696f6e2f6a736f6e3b6261736536342c000000600082015250565b6000613f7b601d83613ba0565b9150613f8682613f45565b601d82019050919050565b6000613f9c82613f6e565b9150613fa88284613c43565b915081905092915050565b7f455243313135353a207472616e736665722063616c6c6572206973206e6f742060008201527f6f776e6572206e6f7220617070726f7665640000000000000000000000000000602082015250565b600061400f6032836130cb565b915061401a82613fb3565b604082019050919050565b6000602082019050818103600083015261403e81614002565b9050919050565b7f4f776e61626c653a2063616c6c6572206973206e6f7420746865206f776e6572600082015250565b600061407b6020836130cb565b915061408682614045565b602082019050919050565b600060208201905081810360008301526140aa8161406e565b9050919050565b7f4e487b7100000000000000000000000000000000000000000000000000000000600052601160045260246000fd5b60006140eb82612f38565b91506140f683612f38565b9250817fffffffffffffffffffffffffffffffffffffffffffffffffffffffffffffffff048311821515161561412f5761412e6140b1565b5b828202905092915050565b7f4e487b7100000000000000000000000000000000000000000000000000000000600052601260045260246000fd5b600061417482612f38565b915061417f83612f38565b92508261418f5761418e61413a565b5b828204905092915050565b60006141a582612f38565b91506141b083612f38565b9250828210156141c3576141c26140b1565b5b828203905092915050565b600081905092915050565b50565b60006141e96000836141ce565b91506141f4826141d9565b600082019050919050565b600061420a826141dc565b9150819050919050565b7f455243313135353a206163636f756e747320616e6420696473206c656e67746860008201527f206d69736d617463680000000000000000000000000000000000000000000000602082015250565b60006142706029836130cb565b915061427b82614214565b604082019050919050565b6000602082019050818103600083015261429f81614263565b9050919050565b7f4e487b7100000000000000000000000000000000000000000000000000000000600052603260045260246000fd5b60006142e082612f38565b91507fffffffffffffffffffffffffffffffffffffffffffffffffffffffffffffffff821415614313576143126140b1565b5b600182019050919050565b7f4e6f206974656d49640000000000000000000000000000000000000000000000600082015250565b60006143546009836130cb565b915061435f8261431e565b602082019050919050565b6000602082019050818103600083015261438381614347565b9050919050565b600061439582612f38565b91506143a083612f38565b9250827fffffffffffffffffffffffffffffffffffffffffffffffffffffffffffffffff038211156143d5576143d46140b1565b5b828201905092915050565b7f4e6f7420656e6f75676820737570706c79000000000000000000000000000000600082015250565b60006144166011836130cb565b9150614421826143e0565b602082019050919050565b6000602082019050818103600083015261444581614409565b9050919050565b7f53616c65206e6f74207374617274656400000000000000000000000000000000600082015250565b60006144826010836130cb565b915061448d8261444c565b602082019050919050565b600060208201905081810360008301526144b181614475565b9050919050565b7f4974656d206973206e6f742070617961626c652c2063616e742062757920776960008201527f7468204554480000000000000000000000000000000000000000000000000000602082015250565b60006145146026836130cb565b915061451f826144b8565b604082019050919050565b6000602082019050818103600083015261454381614507565b9050919050565b7f4e6f7420656e6f75676820455448000000000000000000000000000000000000600082015250565b6000614580600e836130cb565b915061458b8261454a565b602082019050919050565b600060208201905081810360008301526145af81614573565b9050919050565b7f4974656d206973206e6f7420636c61696d61626c650000000000000000000000600082015250565b60006145ec6015836130cb565b91506145f7826145b6565b602082019050919050565b6000602082019050818103600083015261461b816145df565b9050919050565b60006040820190506146376000830185613447565b6146446020830184612fae565b9392505050565b7f455243313135353a2063616c6c6572206973206e6f74206f776e6572206e6f7260008201527f20617070726f7665640000000000000000000000000000000000000000000000602082015250565b60006146a76029836130cb565b91506146b28261464b565b604082019050919050565b600060208201905081810360008301526146d68161469a565b9050919050565b7f4f776e61626c653a206e6577206f776e657220697320746865207a65726f206160008201527f6464726573730000000000000000000000000000000000000000000000000000602082015250565b60006147396026836130cb565b9150614744826146dd565b604082019050919050565b600060208201905081810360008301526147688161472c565b9050919050565b7f496e76616c6964206d6178537570706c79000000000000000000000000000000600082015250565b60006147a56011836130cb565b91506147b08261476f565b602082019050919050565b600060208201905081810360008301526147d481614798565b9050919050565b600060e0820190506147f0600083018a612fae565b81810360208301526148028189613120565b905081810360408301526148168188613120565b90506148256060830187612fae565b6148326080830186612fae565b61483f60a08301856137a0565b61484c60c0830184613069565b98975050505050505050565b7f455243313135353a2069647320616e6420616d6f756e7473206c656e6774682060008201527f6d69736d61746368000000000000000000000000000000000000000000000000602082015250565b60006148b46028836130cb565b91506148bf82614858565b604082019050919050565b600060208201905081810360008301526148e3816148a7565b9050919050565b7f455243313135353a207472616e7366657220746f20746865207a65726f20616460008201527f6472657373000000000000000000000000000000000000000000000000000000602082015250565b60006149466025836130cb565b9150614951826148ea565b604082019050919050565b6000602082019050818103600083015261497581614939565b9050919050565b7f455243313135353a20696e73756666696369656e742062616c616e636520666f60008201527f72207472616e7366657200000000000000000000000000000000000000000000602082015250565b60006149d8602a836130cb565b91506149e38261497c565b604082019050919050565b60006020820190508181036000830152614a07816149cb565b9050919050565b60006040820190508181036000830152614a28818561360c565b90508181036020830152614a3c818461360c565b90509392505050565b7f455243313135353a206d696e7420746f20746865207a65726f2061646472657360008201527f7300000000000000000000000000000000000000000000000000000000000000602082015250565b6000614aa16021836130cb565b9150614aac82614a45565b604082019050919050565b60006020820190508181036000830152614ad081614a94565b9050919050565b6000604082019050614aec6000830185612fae565b614af96020830184612fae565b9392505050565b7f4f7574206f662073746f636b0000000000000000000000000000000000000000600082015250565b6000614b36600c836130cb565b9150614b4182614b00565b602082019050919050565b60006020820190508181036000830152614b6581614b29565b9050919050565b7f455243313135353a2073657474696e6720617070726f76616c2073746174757360008201527f20666f722073656c660000000000000000000000000000000000000000000000602082015250565b6000614bc86029836130cb565b9150614bd382614b6c565b604082019050919050565b60006020820190508181036000830152614bf781614bbb565b9050919050565b600081519050919050565b600082825260208201905092915050565b6000614c2582614bfe565b614c2f8185614c09565b9350614c3f8185602086016130dc565b614c488161310f565b840191505092915050565b600060a082019050614c686000830188613447565b614c756020830187613447565b8181036040830152614c87818661360c565b90508181036060830152614c9b818561360c565b90508181036080830152614caf8184614c1a565b90509695505050505050565b600081519050614cca81613004565b92915050565b600060208284031215614ce657614ce5612ed0565b5b6000614cf484828501614cbb565b91505092915050565b60008160e01c9050919050565b600060033d1115614d295760046000803e614d26600051614cfd565b90505b90565b600060443d1015614d3c57614dbf565b614d44612ec6565b60043d036004823e80513d602482011167ffffffffffffffff82111715614d6c575050614dbf565b808201805167ffffffffffffffff811115614d8a5750505050614dbf565b80602083010160043d038501811115614da7575050505050614dbf565b614db6826020018501866131af565b82955050505050505b90565b7f455243313135353a207472616e7366657220746f206e6f6e204552433131353560008201527f526563656976657220696d706c656d656e746572000000000000000000000000602082015250565b6000614e1e6034836130cb565b9150614e2982614dc2565b604082019050919050565b60006020820190508181036000830152614e4d81614e11565b9050919050565b7f455243313135353a204552433131353552656365697665722072656a6563746560008201527f6420746f6b656e73000000000000000000000000000000000000000000000000602082015250565b6000614eb06028836130cb565b9150614ebb82614e54565b604082019050919050565b60006020820190508181036000830152614edf81614ea3565b9050919050565b600060a082019050614efb6000830188613447565b614f086020830187613447565b614f156040830186612fae565b614f226060830185612fae565b8181036080830152614f348184614c1a565b9050969550505050505056fe4142434445464748494a4b4c4d4e4f505152535455565758595a6162636465666768696a6b6c6d6e6f707172737475767778797a303132333435363738392b2fa264697066735822122085d55b579af90697e1ac795573560ada206b244ec886ffd551ad8b46b949877564736f6c634300080b0033",
  "immutableReferences": {
    "3190": [
      {
        "length": 32,
        "start": 2889
      },
      {
        "length": 32,
        "start": 5257
      }
    ]
  },
  "source": "// SPDX-License-Identifier: MIT\npragma solidity ^0.8.11;\n\nimport \"@openzeppelin/contracts/token/ERC1155/ERC1155.sol\";\nimport \"@openzeppelin/contracts/token/ERC20/extensions/ERC20Burnable.sol\";\nimport \"@openzeppelin/contracts/token/ERC721/IERC721.sol\";\nimport \"@openzeppelin/contracts/access/Ownable.sol\";\nimport \"@openzeppelin/contracts/utils/Strings.sol\";\n\nimport \"./Base64.sol\";\n\n/*\n Simple ERC1155 contract for initial sale. It represents in-game items, so each option corresponds to an game item, like: Skin, Weapon, Armor.\n \n The features:\n - admin can add new items to the marketplace (name, price, max supply)\n - admin can lower max supply of an item\n - admin can change price for each item\n - users can purchase item if minter didn't run out of supply and if saleStarted = true\n\n - admin can withdraw funds from sale, but 10% goes to the developer address \"0x704C043CeB93bD6cBE570C6A2708c3E1C0310587\"\n - tokens are burnable\n - admin can flipSaleStarted, switching between sale active or disabled (saleStarted is true/false)\n\n Items are stored in array of struct GameItem.\n\n In ERC1155, tokens have id, which represents itemId.\n */\n\n\n/*\nDONE:\n- add claimItem onlyOwner whenSaleStarted = false\n- remove URI not used\n- can we edit imageUrl later? No\n- double-check description\n- buy limit per address ? No\n- burn?\n- create RDK token for testing\n- deploy buildship on rinkeby to make sure we receive money\n\n*/\n\nenum ItemType {\n    Payable, // 0 = default\n    Claimable // 1\n}\n\n/// @custom:security-contact \ncontract RedAttackMarketplace is ERC1155, Ownable {\n    using Strings for uint256;\n\n    // Buildship storage\n    address payable buildship = payable(0x704C043CeB93bD6cBE570C6A2708c3E1C0310587);\n\n    address public immutable RDK;\n\n    constructor(address _RDK)\n        ERC1155(\"override\")\n    {\n        RDK = _RDK;\n        // SHIBA = _SHIBA;\n    }\n\n    struct GameItem {\n        uint256 price; // in ETH, or RDK (with decimals)\n        uint256 maxSupply;\n        uint256 mintedSupply;\n        ItemType itemType;\n        string name;\n        string imageUrl;\n    }\n\n    mapping(uint256 => GameItem) public items;\n    // keep track of total number of items\n    uint256 public totalItems;\n\n    mapping (uint256 => bool) private _saleStarted;\n\n    modifier whenSaleStarted(uint256 itemId) {\n        require(_saleStarted[itemId], \"Sale not started\");\n        _;\n    }\n\n    // ----- View functions -----\n\n    function saleStarted(uint256 itemId) public view returns(bool) {\n        return _saleStarted[itemId];\n    }\n\n    function uri(uint256 tokenId) public view override returns (string memory output) {\n        // on-chain metadata inspired by Loot https://etherscan.io/address/0xff9c1b15b16263c61d017ee9f65c50e4ae0113d7#code\n\n        GameItem memory item = items[tokenId];\n\n        string memory json = Base64.encode(bytes(string(abi.encodePacked(\n            '{',\n            '\"name\": \"', item.name, '\",',\n            '\"description\": \"The Fight for Meegosa is an NFT community MMORPG. Join the community and learn more in our Discord. https://discord.gg/c7NRVvvVZt https://twitter.com/AmeegosOfficial https://ameegos.io/\",',\n            '\"image\": \"', item.imageUrl, '\"',\n            '}'\n        ))));\n\n        output = string(abi.encodePacked('data:application/json;base64,', json));\n\n    }\n\n    // ----- Internal functions -----\n\n    // Buy item\n    function _buyItem(uint256 itemId, uint256 amount)\n        internal\n        whenSaleStarted(itemId)\n    {\n        require(itemId < totalItems, \"No itemId\");\n\n        GameItem storage item = items[itemId];\n\n        require(item.mintedSupply + amount <= items[itemId].maxSupply, \"Out of stock\");\n\n        // buy item\n        item.mintedSupply += amount;\n        _mint(msg.sender, itemId, amount, \"\");\n    }\n\n    // -------- User functions\n\n    // Pays in ETH, requires not Claimable\n    function buyItem(uint256 itemId, uint256 amount)\n        external\n        payable\n        whenSaleStarted(itemId)\n    {\n        require(itemId < totalItems, \"No itemId\");\n\n        GameItem memory item = items[itemId];\n\n        require(item.itemType == ItemType.Payable, \"Item is not payable, cant buy with ETH\");\n        require(item.price * amount <= msg.value, \"Not enough ETH\");\n\n        _buyItem(itemId, amount);  \n    }\n\n    function claimItem(uint256 itemId, uint256 amount)\n        external\n        whenSaleStarted(itemId)\n    {\n        require(itemId < totalItems, \"No itemId\");\n\n        GameItem memory item = items[itemId];\n\n        require(item.itemType == ItemType.Claimable, \"Item is not claimable\");\n\n        uint256 total = item.price * amount; // this is in RDK\n\n        ERC20Burnable(RDK).burnFrom(msg.sender, total);\n\n        _buyItem(itemId, amount);\n    }\n\n    // ----- Admin functions -----\n\n    // reserveItem onlyOwner, allows admin to claim any amount of any token,\n    function reserveItem(uint256 itemId, uint256 amount) public onlyOwner {\n        // require(_saleStarted[itemId] == false, \"Only claim when sale is not active\");\n\n        require(itemId < totalItems, \"No itemId\");\n\n        GameItem storage item = items[itemId];\n\n        require(item.mintedSupply + amount <= item.maxSupply, \"Not enough supply\");\n\n        item.mintedSupply += amount;\n        _mint(msg.sender, itemId, amount, \"\");\n    }\n\n    function flipSaleStarted(uint256 itemId) external onlyOwner {\n        _saleStarted[itemId] = !_saleStarted[itemId];\n    }\n\n    function startSaleAll() external onlyOwner {\n        for (uint256 itemId = 0; itemId < totalItems; itemId++) {\n            _saleStarted[itemId] = true;\n        }\n    }\n\n    // Add new item to the marketplace\n    // @notice Dont forget to add tokenId metadata to backend\n    function addItem(string memory name, string memory imageUrl, uint256 price, uint256 maxSupply, ItemType itemType, bool startSale) public onlyOwner {\n        require(maxSupply > 0, \"Invalid maxSupply\");\n\n        uint256 newItemId = totalItems;\n\n        // create new item\n        GameItem memory item = GameItem(price, maxSupply, 0, itemType, name, imageUrl);\n\n        // add item to the array\n        items[newItemId] = item;\n        totalItems++;\n\n        // should start sale right after adding?\n        _saleStarted[newItemId] = startSale;\n\n        emit ItemAdded(newItemId, name, imageUrl, price, maxSupply, itemType, startSale);\n    }\n\n    // Change price for item\n    function changePrice(uint256 itemId, uint256 newPrice) public onlyOwner {\n        // require(newPrice > 0);\n\n        // change price\n        // TODO: change for RDK too\n        items[itemId].price = newPrice;\n    }\n\n    // Withdraw sale money\n    function withdraw() public onlyOwner {\n        uint256 _balance = address(this).balance;\n\n        uint256 baseAmount = _balance * 17 / 20;\n\n        require(payable(msg.sender).send(baseAmount));\n\n        (bool success,) = buildship.call{value: _balance - baseAmount}(\"\");\n        require(success);\n    }\n\n    event ItemAdded(uint256 itemId, string name, string imageUrl, uint256 price, uint256 maxSupply, ItemType itemType, bool startSale);\n\n}",
  "sourcePath": "/home/mike/work/redattack/contracts/RedAttackMarketplace.sol",
  "compiler": {
    "name": "solc",
    "version": "0.8.11+commit.d7f03943.Emscripten.clang"
  },
  "schemaVersion": "3.4.4",
  "updatedAt": "2022-01-26T11:33:31.990Z",
  "devdoc": {
    "custom:security-contact": "",
    "kind": "dev",
    "methods": {
      "balanceOf(address,uint256)": {
        "details": "See {IERC1155-balanceOf}. Requirements: - `account` cannot be the zero address."
      },
      "balanceOfBatch(address[],uint256[])": {
        "details": "See {IERC1155-balanceOfBatch}. Requirements: - `accounts` and `ids` must have the same length."
      },
      "isApprovedForAll(address,address)": {
        "details": "See {IERC1155-isApprovedForAll}."
      },
      "owner()": {
        "details": "Returns the address of the current owner."
      },
      "renounceOwnership()": {
        "details": "Leaves the contract without owner. It will not be possible to call `onlyOwner` functions anymore. Can only be called by the current owner. NOTE: Renouncing ownership will leave the contract without an owner, thereby removing any functionality that is only available to the owner."
      },
      "safeBatchTransferFrom(address,address,uint256[],uint256[],bytes)": {
        "details": "See {IERC1155-safeBatchTransferFrom}."
      },
      "safeTransferFrom(address,address,uint256,uint256,bytes)": {
        "details": "See {IERC1155-safeTransferFrom}."
      },
      "setApprovalForAll(address,bool)": {
        "details": "See {IERC1155-setApprovalForAll}."
      },
      "supportsInterface(bytes4)": {
        "details": "See {IERC165-supportsInterface}."
      },
      "transferOwnership(address)": {
        "details": "Transfers ownership of the contract to a new account (`newOwner`). Can only be called by the current owner."
      }
    },
    "version": 1
  },
  "userdoc": {
    "kind": "user",
    "methods": {},
    "version": 1
  }
}